{
  "contractName": "CGSContract",
  "abi": [
    {
      "inputs": [
        {
          "internalType": "uint64",
          "name": "_instanceID",
          "type": "uint64"
        },
        {
          "internalType": "bytes32",
          "name": "_hash1",
          "type": "bytes32"
        },
        {
          "internalType": "bytes32",
          "name": "_hash2",
          "type": "bytes32"
        }
      ],
      "name": "setAuthoritiesNames",
      "outputs": [],
      "stateMutability": "nonpayable",
      "type": "function"
    },
    {
      "inputs": [
        {
          "internalType": "address",
          "name": "_address",
          "type": "address"
        },
        {
          "internalType": "uint64",
          "name": "_instanceID",
          "type": "uint64"
        }
      ],
      "name": "getAuthoritiesNames",
      "outputs": [
        {
          "internalType": "bytes",
          "name": "",
          "type": "bytes"
        }
      ],
      "stateMutability": "view",
      "type": "function",
      "constant": true
    },
    {
      "inputs": [
        {
          "internalType": "uint64",
          "name": "_instanceID",
          "type": "uint64"
        },
        {
          "internalType": "bytes32",
          "name": "_hash1",
          "type": "bytes32"
        },
        {
          "internalType": "bytes32",
          "name": "_hash2",
          "type": "bytes32"
        },
        {
          "internalType": "bytes32",
          "name": "_hash3",
          "type": "bytes32"
        },
        {
          "internalType": "bytes32",
          "name": "_hash4",
          "type": "bytes32"
        }
      ],
      "name": "setElementHashed",
      "outputs": [],
      "stateMutability": "nonpayable",
      "type": "function"
    },
    {
      "inputs": [
        {
          "internalType": "address",
          "name": "_address",
          "type": "address"
        },
        {
          "internalType": "uint64",
          "name": "_instanceID",
          "type": "uint64"
        }
      ],
      "name": "getElementHashed",
      "outputs": [
        {
          "internalType": "bytes",
          "name": "",
          "type": "bytes"
        },
        {
          "internalType": "bytes",
          "name": "",
          "type": "bytes"
        }
      ],
      "stateMutability": "view",
      "type": "function",
      "constant": true
    },
    {
      "inputs": [
        {
          "internalType": "uint64",
          "name": "_instanceID",
          "type": "uint64"
        },
        {
          "internalType": "bytes32",
          "name": "_hash1",
          "type": "bytes32"
        },
        {
          "internalType": "bytes32",
          "name": "_hash2",
          "type": "bytes32"
        },
        {
          "internalType": "bytes32",
          "name": "_hash3",
          "type": "bytes32"
        },
        {
          "internalType": "bytes32",
          "name": "_hash4",
          "type": "bytes32"
        },
        {
          "internalType": "bytes32",
          "name": "_hash5",
          "type": "bytes32"
        },
        {
          "internalType": "bytes32",
          "name": "_hash6",
          "type": "bytes32"
        }
      ],
      "name": "setElement",
      "outputs": [],
      "stateMutability": "nonpayable",
      "type": "function"
    },
    {
      "inputs": [
        {
          "internalType": "address",
          "name": "_address",
          "type": "address"
        },
        {
          "internalType": "uint64",
          "name": "_instanceID",
          "type": "uint64"
        }
      ],
      "name": "getElement",
      "outputs": [
        {
          "internalType": "bytes",
          "name": "",
          "type": "bytes"
        },
        {
          "internalType": "bytes32",
          "name": "",
          "type": "bytes32"
        },
        {
          "internalType": "bytes",
          "name": "",
          "type": "bytes"
        },
        {
          "internalType": "bytes32",
          "name": "",
          "type": "bytes32"
        }
      ],
      "stateMutability": "view",
      "type": "function",
      "constant": true
    },
    {
      "inputs": [
        {
          "internalType": "uint64",
          "name": "_instanceID",
          "type": "uint64"
        },
        {
          "internalType": "bytes32",
          "name": "_hash1",
          "type": "bytes32"
        },
        {
          "internalType": "bytes32",
          "name": "_hash2",
          "type": "bytes32"
        }
      ],
      "name": "setPublicParameters",
      "outputs": [],
      "stateMutability": "nonpayable",
      "type": "function"
    },
    {
      "inputs": [
        {
          "internalType": "address",
          "name": "_address",
          "type": "address"
        },
        {
          "internalType": "uint64",
          "name": "_instanceID",
          "type": "uint64"
        }
      ],
      "name": "getPublicParameters",
      "outputs": [
        {
          "internalType": "bytes",
          "name": "",
          "type": "bytes"
        }
      ],
      "stateMutability": "view",
      "type": "function",
      "constant": true
    },
    {
      "inputs": [
        {
          "internalType": "uint64",
          "name": "_instanceID",
          "type": "uint64"
        },
        {
          "internalType": "bytes32",
          "name": "_hash1",
          "type": "bytes32"
        },
        {
          "internalType": "bytes32",
          "name": "_hash2",
          "type": "bytes32"
        }
      ],
      "name": "setPublicKey",
      "outputs": [],
      "stateMutability": "nonpayable",
      "type": "function"
    },
    {
      "inputs": [
        {
          "internalType": "address",
          "name": "_address",
          "type": "address"
        },
        {
          "internalType": "uint64",
          "name": "_instanceID",
          "type": "uint64"
        }
      ],
      "name": "getPublicKey",
      "outputs": [
        {
          "internalType": "bytes",
          "name": "",
          "type": "bytes"
        }
      ],
      "stateMutability": "view",
      "type": "function",
      "constant": true
    },
    {
      "inputs": [
        {
          "internalType": "bytes32",
          "name": "_hash1",
          "type": "bytes32"
        },
        {
          "internalType": "bytes32",
          "name": "_hash2",
          "type": "bytes32"
        }
      ],
      "name": "setPublicKeyReaders",
      "outputs": [],
      "stateMutability": "nonpayable",
      "type": "function"
    },
    {
      "inputs": [
        {
          "internalType": "address",
          "name": "_address",
          "type": "address"
        }
      ],
      "name": "getPublicKeyReaders",
      "outputs": [
        {
          "internalType": "bytes",
          "name": "",
          "type": "bytes"
        }
      ],
      "stateMutability": "view",
      "type": "function",
      "constant": true
    },
    {
      "inputs": [
        {
          "internalType": "uint64",
          "name": "_instanceID",
          "type": "uint64"
        },
        {
          "internalType": "bytes32",
          "name": "_hash1",
          "type": "bytes32"
        },
        {
          "internalType": "bytes32",
          "name": "_hash2",
          "type": "bytes32"
        }
      ],
      "name": "setUserAttributes",
      "outputs": [],
      "stateMutability": "nonpayable",
      "type": "function"
    },
    {
      "inputs": [
        {
          "internalType": "uint64",
          "name": "_instanceID",
          "type": "uint64"
        }
      ],
      "name": "getUserAttributes",
      "outputs": [
        {
          "internalType": "bytes",
          "name": "",
          "type": "bytes"
        }
      ],
      "stateMutability": "view",
      "type": "function",
      "constant": true
    },
    {
      "inputs": [
        {
          "internalType": "uint64",
          "name": "_caseID",
          "type": "uint64"
        },
        {
          "internalType": "bytes32",
          "name": "_hash1",
          "type": "bytes32"
        },
        {
          "internalType": "bytes32",
          "name": "_hash2",
          "type": "bytes32"
        }
      ],
      "name": "setApplicationForm",
      "outputs": [],
      "stateMutability": "nonpayable",
      "type": "function"
    },
    {
      "inputs": [
        {
          "internalType": "uint64",
          "name": "_caseID",
          "type": "uint64"
        }
      ],
      "name": "getApplicationForm",
      "outputs": [
        {
          "internalType": "uint8",
          "name": "",
          "type": "uint8"
        },
        {
          "internalType": "address",
          "name": "",
          "type": "address"
        },
        {
          "internalType": "bytes",
          "name": "",
          "type": "bytes"
        }
      ],
      "stateMutability": "view",
      "type": "function",
      "constant": true
    },
    {
      "inputs": [
        {
          "internalType": "uint64",
          "name": "_caseID",
          "type": "uint64"
        },
        {
          "internalType": "bytes32",
          "name": "_hash1",
          "type": "bytes32"
        },
        {
          "internalType": "bytes32",
          "name": "_hash2",
          "type": "bytes32"
        }
      ],
      "name": "setGuaranteeConfirmation",
      "outputs": [],
      "stateMutability": "nonpayable",
      "type": "function"
    },
    {
      "inputs": [
        {
          "internalType": "uint64",
          "name": "_caseID",
          "type": "uint64"
        }
      ],
      "name": "getGuaranteeConfirmation",
      "outputs": [
        {
          "internalType": "uint8",
          "name": "",
          "type": "uint8"
        },
        {
          "internalType": "address",
          "name": "",
          "type": "address"
        },
        {
          "internalType": "bytes",
          "name": "",
          "type": "bytes"
        }
      ],
      "stateMutability": "view",
      "type": "function",
      "constant": true
    },
    {
      "inputs": [
        {
          "internalType": "uint64",
          "name": "_caseID",
          "type": "uint64"
        },
        {
          "internalType": "bytes32",
          "name": "_hash1",
          "type": "bytes32"
        },
        {
          "internalType": "bytes32",
          "name": "_hash2",
          "type": "bytes32"
        }
      ],
      "name": "setLoanRequest",
      "outputs": [],
      "stateMutability": "nonpayable",
      "type": "function"
    },
    {
      "inputs": [
        {
          "internalType": "uint64",
          "name": "_caseID",
          "type": "uint64"
        }
      ],
      "name": "getLoanRequest",
      "outputs": [
        {
          "internalType": "uint8",
          "name": "",
          "type": "uint8"
        },
        {
          "internalType": "address",
          "name": "",
          "type": "address"
        },
        {
          "internalType": "bytes",
          "name": "",
          "type": "bytes"
        }
      ],
      "stateMutability": "view",
      "type": "function",
      "constant": true
    },
    {
      "inputs": [
        {
          "internalType": "uint64",
          "name": "_caseID",
          "type": "uint64"
        },
        {
          "internalType": "bytes32",
          "name": "_hash1",
          "type": "bytes32"
        },
        {
          "internalType": "bytes32",
          "name": "_hash2",
          "type": "bytes32"
        }
      ],
      "name": "setGuaranteeClaim",
      "outputs": [],
      "stateMutability": "nonpayable",
      "type": "function"
    },
    {
      "inputs": [
        {
          "internalType": "uint64",
          "name": "_caseID",
          "type": "uint64"
        }
      ],
      "name": "getGuaranteeClaim",
      "outputs": [
        {
          "internalType": "uint8",
          "name": "",
          "type": "uint8"
        },
        {
          "internalType": "address",
          "name": "",
          "type": "address"
        },
        {
          "internalType": "bytes",
          "name": "",
          "type": "bytes"
        }
      ],
      "stateMutability": "view",
      "type": "function",
      "constant": true
    },
    {
      "inputs": [
        {
          "internalType": "uint64",
          "name": "_caseID",
          "type": "uint64"
        },
        {
          "internalType": "bytes32",
          "name": "_hash1",
          "type": "bytes32"
        },
        {
          "internalType": "bytes32",
          "name": "_hash2",
          "type": "bytes32"
        }
      ],
      "name": "setRejectPayment",
      "outputs": [],
      "stateMutability": "nonpayable",
      "type": "function"
    },
    {
      "inputs": [
        {
          "internalType": "uint64",
          "name": "_caseID",
          "type": "uint64"
        }
      ],
      "name": "getRejectPayment",
      "outputs": [
        {
          "internalType": "uint8",
          "name": "",
          "type": "uint8"
        },
        {
          "internalType": "address",
          "name": "",
          "type": "address"
        },
        {
          "internalType": "bytes",
          "name": "",
          "type": "bytes"
        }
      ],
      "stateMutability": "view",
      "type": "function",
      "constant": true
    },
    {
      "inputs": [
        {
          "internalType": "uint64",
          "name": "_caseID",
          "type": "uint64"
        },
        {
          "internalType": "bytes32",
          "name": "_hash1",
          "type": "bytes32"
        },
        {
          "internalType": "bytes32",
          "name": "_hash2",
          "type": "bytes32"
        }
      ],
      "name": "setAllowPayment",
      "outputs": [],
      "stateMutability": "nonpayable",
      "type": "function"
    },
    {
      "inputs": [
        {
          "internalType": "uint64",
          "name": "_caseID",
          "type": "uint64"
        }
      ],
      "name": "getAllowPayment",
      "outputs": [
        {
          "internalType": "uint8",
          "name": "",
          "type": "uint8"
        },
        {
          "internalType": "address",
          "name": "",
          "type": "address"
        },
        {
          "internalType": "bytes",
          "name": "",
          "type": "bytes"
        }
      ],
      "stateMutability": "view",
      "type": "function",
      "constant": true
    },
    {
      "inputs": [
        {
          "internalType": "uint64",
          "name": "_caseID",
          "type": "uint64"
        },
        {
          "internalType": "bytes32",
          "name": "_hash1",
          "type": "bytes32"
        },
        {
          "internalType": "bytes32",
          "name": "_hash2",
          "type": "bytes32"
        }
      ],
      "name": "setGuaranteeClaimGuarantor",
      "outputs": [],
      "stateMutability": "nonpayable",
      "type": "function"
    },
    {
      "inputs": [
        {
          "internalType": "uint64",
          "name": "_caseID",
          "type": "uint64"
        }
      ],
      "name": "getGuaranteeClaimGuarantor",
      "outputs": [
        {
          "internalType": "uint8",
          "name": "",
          "type": "uint8"
        },
        {
          "internalType": "address",
          "name": "",
          "type": "address"
        },
        {
          "internalType": "bytes",
          "name": "",
          "type": "bytes"
        }
      ],
      "stateMutability": "view",
      "type": "function",
      "constant": true
    }
  ],
  "bytecode": "0x608060405234801561001057600080fd5b50613718806100206000396000f3fe608060405234801561001057600080fd5b50600436106101c45760003560e01c806363c2c112116100f9578063ccdd111611610097578063d17e48f211610071578063d17e48f21461057f578063e57e42821461059b578063fadef607146105b7578063ffff60f9146105d3576101c4565b8063ccdd111614610515578063ce16eefe14610531578063cf1fd0d114610563576101c4565b80638c842a93116100d35780638c842a931461047b5780638d30055a146104ad5780639ab28e2f146104dd578063c40dc8ed146104f9576101c4565b806363c2c112146103e457806365e910b81461041657806370012d0a14610448576101c4565b80633b8b760c116101665780634b6869ed116101405780634b6869ed1461034b57806359ec2bc1146103675780635d16353514610383578063621f2e64146103b4576101c4565b80633b8b760c146102cf5780633f30c4cd146102ff578063497dc1e41461032f576101c4565b806312c08042116101a257806312c08042146102335780631e27d9b11461024f578063203596971461026b57806325ba8d4c1461029d576101c4565b806305688eba146101c95780630b701edb146101e55780630d18543d14610217575b600080fd5b6101e360048036038101906101de9190612e48565b610603565b005b6101ff60048036038101906101fa9190612e9b565b610666565b60405161020e93929190612fb5565b60405180910390f35b610231600480360381019061022c9190612ff3565b6107c7565b005b61024d60048036038101906102489190612e48565b610859565b005b61026960048036038101906102649190612e48565b610934565b005b61028560048036038101906102809190612e9b565b610ac1565b60405161029493929190612fb5565b60405180910390f35b6102b760048036038101906102b29190612e9b565b610c22565b6040516102c693929190612fb5565b60405180910390f35b6102e960048036038101906102e4919061305f565b610d83565b6040516102f6919061309f565b60405180910390f35b6103196004803603810190610314919061305f565b610ec7565b604051610326919061309f565b60405180910390f35b610349600480360381019061034491906130c1565b61100b565b005b61036560048036038101906103609190612e48565b61129c565b005b610381600480360381019061037c9190612e48565b611379565b005b61039d6004803603810190610398919061305f565b611506565b6040516103ab929190613163565b60405180910390f35b6103ce60048036038101906103c9919061305f565b611788565b6040516103db919061309f565b60405180910390f35b6103fe60048036038101906103f99190612e9b565b6118ca565b60405161040d93929190612fb5565b60405180910390f35b610430600480360381019061042b9190612e9b565b611a2b565b60405161043f93929190612fb5565b60405180910390f35b610462600480360381019061045d919061305f565b611b8c565b60405161047294939291906131a9565b60405180910390f35b61049560048036038101906104909190612e9b565b611ef4565b6040516104a493929190612fb5565b60405180910390f35b6104c760048036038101906104c291906131fc565b612055565b6040516104d4919061309f565b60405180910390f35b6104f760048036038101906104f29190612e48565b61214e565b005b610513600480360381019061050e9190613229565b6122db565b005b61052f600480360381019061052a9190612e48565b612492565b005b61054b60048036038101906105469190612e9b565b61261f565b60405161055a93929190612fb5565b60405180910390f35b61057d60048036038101906105789190612e48565b612780565b005b61059960048036038101906105949190612e48565b61285d565b005b6105b560048036038101906105b09190612e48565b6129ea565b005b6105d160048036038101906105cc9190612e48565b612b77565b005b6105ed60048036038101906105e89190612e9b565b612d04565b6040516105fa919061309f565b60405180910390f35b81600860008567ffffffffffffffff1667ffffffffffffffff1681526020019081526020016000206000018190555080600860008567ffffffffffffffff1667ffffffffffffffff16815260200190815260200160002060010181905550505050565b60008060606000600a60008667ffffffffffffffff1667ffffffffffffffff16815260200190815260200160002060000160009054906101000a900460ff1690506000600a60008767ffffffffffffffff1667ffffffffffffffff16815260200190815260200160002060000160019054906101000a900473ffffffffffffffffffffffffffffffffffffffff1690506000600a60008867ffffffffffffffff1667ffffffffffffffff1681526020019081526020016000206001015490506000600a60008967ffffffffffffffff1667ffffffffffffffff1681526020019081526020016000206002015490506000604067ffffffffffffffff811115610771576107706132a4565b5b6040519080825280601f01601f1916602001820160405280156107a35781602001600182028036833780820191505090505b50905082602082015281604082015284848297509750975050505050509193909250565b81600760003373ffffffffffffffffffffffffffffffffffffffff1673ffffffffffffffffffffffffffffffffffffffff1681526020019081526020016000206000018190555080600760003373ffffffffffffffffffffffffffffffffffffffff1673ffffffffffffffffffffffffffffffffffffffff168152602001908152602001600020600101819055505050565b816000808567ffffffffffffffff1667ffffffffffffffff16815260200190815260200160002060003373ffffffffffffffffffffffffffffffffffffffff1673ffffffffffffffffffffffffffffffffffffffff16815260200190815260200160002060000181905550806000808567ffffffffffffffff1667ffffffffffffffff16815260200190815260200160002060003373ffffffffffffffffffffffffffffffffffffffff1673ffffffffffffffffffffffffffffffffffffffff16815260200190815260200160002060010181905550505050565b6000600960008567ffffffffffffffff1667ffffffffffffffff16815260200190815260200160002060000160009054906101000a900460ff1660ff16146109b1576040517f08c379a00000000000000000000000000000000000000000000000000000000081526004016109a890613356565b60405180910390fd5b6001600960008567ffffffffffffffff1667ffffffffffffffff16815260200190815260200160002060000160006101000a81548160ff021916908360ff16021790555033600960008567ffffffffffffffff1667ffffffffffffffff16815260200190815260200160002060000160016101000a81548173ffffffffffffffffffffffffffffffffffffffff021916908373ffffffffffffffffffffffffffffffffffffffff16021790555081600960008567ffffffffffffffff1667ffffffffffffffff1681526020019081526020016000206003018190555080600960008567ffffffffffffffff1667ffffffffffffffff16815260200190815260200160002060040181905550505050565b60008060606000600960008667ffffffffffffffff1667ffffffffffffffff16815260200190815260200160002060000160009054906101000a900460ff1690506000600960008767ffffffffffffffff1667ffffffffffffffff16815260200190815260200160002060020160009054906101000a900473ffffffffffffffffffffffffffffffffffffffff1690506000600960008867ffffffffffffffff1667ffffffffffffffff1681526020019081526020016000206007015490506000600960008967ffffffffffffffff1667ffffffffffffffff1681526020019081526020016000206008015490506000604067ffffffffffffffff811115610bcc57610bcb6132a4565b5b6040519080825280601f01601f191660200182016040528015610bfe5781602001600182028036833780820191505090505b50905082602082015281604082015284848297509750975050505050509193909250565b60008060606000600960008667ffffffffffffffff1667ffffffffffffffff16815260200190815260200160002060000160009054906101000a900460ff1690506000600960008767ffffffffffffffff1667ffffffffffffffff16815260200190815260200160002060010160009054906101000a900473ffffffffffffffffffffffffffffffffffffffff1690506000600960008867ffffffffffffffff1667ffffffffffffffff1681526020019081526020016000206005015490506000600960008967ffffffffffffffff1667ffffffffffffffff1681526020019081526020016000206006015490506000604067ffffffffffffffff811115610d2d57610d2c6132a4565b5b6040519080825280601f01601f191660200182016040528015610d5f5781602001600182028036833780820191505090505b50905082602082015281604082015284848297509750975050505050509193909250565b60606000600660008467ffffffffffffffff1667ffffffffffffffff16815260200190815260200160002060008573ffffffffffffffffffffffffffffffffffffffff1673ffffffffffffffffffffffffffffffffffffffff1681526020019081526020016000206000015490506000600660008567ffffffffffffffff1667ffffffffffffffff16815260200190815260200160002060008673ffffffffffffffffffffffffffffffffffffffff1673ffffffffffffffffffffffffffffffffffffffff1681526020019081526020016000206001015490506000604067ffffffffffffffff811115610e7a57610e796132a4565b5b6040519080825280601f01601f191660200182016040528015610eac5781602001600182028036833780820191505090505b50905082602082015281604082015280935050505092915050565b60606000600560008467ffffffffffffffff1667ffffffffffffffff16815260200190815260200160002060008573ffffffffffffffffffffffffffffffffffffffff1673ffffffffffffffffffffffffffffffffffffffff1681526020019081526020016000206000015490506000600560008567ffffffffffffffff1667ffffffffffffffff16815260200190815260200160002060008673ffffffffffffffffffffffffffffffffffffffff1673ffffffffffffffffffffffffffffffffffffffff1681526020019081526020016000206001015490506000604067ffffffffffffffff811115610fbe57610fbd6132a4565b5b6040519080825280601f01601f191660200182016040528015610ff05781602001600182028036833780820191505090505b50905082602082015281604082015280935050505092915050565b85600360008967ffffffffffffffff1667ffffffffffffffff16815260200190815260200160002060003373ffffffffffffffffffffffffffffffffffffffff1673ffffffffffffffffffffffffffffffffffffffff1681526020019081526020016000206000018190555084600360008967ffffffffffffffff1667ffffffffffffffff16815260200190815260200160002060003373ffffffffffffffffffffffffffffffffffffffff1673ffffffffffffffffffffffffffffffffffffffff1681526020019081526020016000206001018190555083600360008967ffffffffffffffff1667ffffffffffffffff16815260200190815260200160002060003373ffffffffffffffffffffffffffffffffffffffff1673ffffffffffffffffffffffffffffffffffffffff1681526020019081526020016000206002018190555082600460008967ffffffffffffffff1667ffffffffffffffff16815260200190815260200160002060003373ffffffffffffffffffffffffffffffffffffffff1673ffffffffffffffffffffffffffffffffffffffff1681526020019081526020016000206000018190555081600460008967ffffffffffffffff1667ffffffffffffffff16815260200190815260200160002060003373ffffffffffffffffffffffffffffffffffffffff1673ffffffffffffffffffffffffffffffffffffffff1681526020019081526020016000206001018190555080600460008967ffffffffffffffff1667ffffffffffffffff16815260200190815260200160002060003373ffffffffffffffffffffffffffffffffffffffff1673ffffffffffffffffffffffffffffffffffffffff1681526020019081526020016000206002018190555050505050505050565b81600660008567ffffffffffffffff1667ffffffffffffffff16815260200190815260200160002060003373ffffffffffffffffffffffffffffffffffffffff1673ffffffffffffffffffffffffffffffffffffffff1681526020019081526020016000206000018190555080600660008567ffffffffffffffff1667ffffffffffffffff16815260200190815260200160002060003373ffffffffffffffffffffffffffffffffffffffff1673ffffffffffffffffffffffffffffffffffffffff16815260200190815260200160002060010181905550505050565b6001600960008567ffffffffffffffff1667ffffffffffffffff16815260200190815260200160002060000160009054906101000a900460ff1660ff16146113f6576040517f08c379a00000000000000000000000000000000000000000000000000000000081526004016113ed906133e8565b60405180910390fd5b6002600960008567ffffffffffffffff1667ffffffffffffffff16815260200190815260200160002060000160006101000a81548160ff021916908360ff16021790555033600960008567ffffffffffffffff1667ffffffffffffffff16815260200190815260200160002060010160006101000a81548173ffffffffffffffffffffffffffffffffffffffff021916908373ffffffffffffffffffffffffffffffffffffffff16021790555081600960008567ffffffffffffffff1667ffffffffffffffff1681526020019081526020016000206005018190555080600960008567ffffffffffffffff1667ffffffffffffffff16815260200190815260200160002060060181905550505050565b6060806000600160008567ffffffffffffffff1667ffffffffffffffff16815260200190815260200160002060008673ffffffffffffffffffffffffffffffffffffffff1673ffffffffffffffffffffffffffffffffffffffff1681526020019081526020016000206000015490506000600160008667ffffffffffffffff1667ffffffffffffffff16815260200190815260200160002060008773ffffffffffffffffffffffffffffffffffffffff1673ffffffffffffffffffffffffffffffffffffffff1681526020019081526020016000206001015490506000600260008767ffffffffffffffff1667ffffffffffffffff16815260200190815260200160002060008873ffffffffffffffffffffffffffffffffffffffff1673ffffffffffffffffffffffffffffffffffffffff1681526020019081526020016000206000015490506000600260008867ffffffffffffffff1667ffffffffffffffff16815260200190815260200160002060008973ffffffffffffffffffffffffffffffffffffffff1673ffffffffffffffffffffffffffffffffffffffff1681526020019081526020016000206001015490506000604067ffffffffffffffff8111156116d6576116d56132a4565b5b6040519080825280601f01601f1916602001820160405280156117085781602001600182028036833780820191505090505b5090508460208201528360408201526000604067ffffffffffffffff811115611734576117336132a4565b5b6040519080825280601f01601f1916602001820160405280156117665781602001600182028036833780820191505090505b5090508360208201528260408201528181975097505050505050509250929050565b606060008060008467ffffffffffffffff1667ffffffffffffffff16815260200190815260200160002060008573ffffffffffffffffffffffffffffffffffffffff1673ffffffffffffffffffffffffffffffffffffffff16815260200190815260200160002060000154905060008060008567ffffffffffffffff1667ffffffffffffffff16815260200190815260200160002060008673ffffffffffffffffffffffffffffffffffffffff1673ffffffffffffffffffffffffffffffffffffffff1681526020019081526020016000206001015490506000604067ffffffffffffffff81111561187d5761187c6132a4565b5b6040519080825280601f01601f1916602001820160405280156118af5781602001600182028036833780820191505090505b50905082602082015281604082015280935050505092915050565b60008060606000600a60008667ffffffffffffffff1667ffffffffffffffff16815260200190815260200160002060000160009054906101000a900460ff1690506000600a60008767ffffffffffffffff1667ffffffffffffffff16815260200190815260200160002060000160019054906101000a900473ffffffffffffffffffffffffffffffffffffffff1690506000600a60008867ffffffffffffffff1667ffffffffffffffff1681526020019081526020016000206007015490506000600a60008967ffffffffffffffff1667ffffffffffffffff1681526020019081526020016000206008015490506000604067ffffffffffffffff8111156119d5576119d46132a4565b5b6040519080825280601f01601f191660200182016040528015611a075781602001600182028036833780820191505090505b50905082602082015281604082015284848297509750975050505050509193909250565b60008060606000600a60008667ffffffffffffffff1667ffffffffffffffff16815260200190815260200160002060000160009054906101000a900460ff1690506000600a60008767ffffffffffffffff1667ffffffffffffffff16815260200190815260200160002060000160019054906101000a900473ffffffffffffffffffffffffffffffffffffffff1690506000600a60008867ffffffffffffffff1667ffffffffffffffff1681526020019081526020016000206005015490506000600a60008967ffffffffffffffff1667ffffffffffffffff1681526020019081526020016000206006015490506000604067ffffffffffffffff811115611b3657611b356132a4565b5b6040519080825280601f01601f191660200182016040528015611b685781602001600182028036833780820191505090505b50905082602082015281604082015284848297509750975050505050509193909250565b606060006060600080600360008767ffffffffffffffff1667ffffffffffffffff16815260200190815260200160002060008873ffffffffffffffffffffffffffffffffffffffff1673ffffffffffffffffffffffffffffffffffffffff1681526020019081526020016000206000015490506000600360008867ffffffffffffffff1667ffffffffffffffff16815260200190815260200160002060008973ffffffffffffffffffffffffffffffffffffffff1673ffffffffffffffffffffffffffffffffffffffff1681526020019081526020016000206001015490506000600360008967ffffffffffffffff1667ffffffffffffffff16815260200190815260200160002060008a73ffffffffffffffffffffffffffffffffffffffff1673ffffffffffffffffffffffffffffffffffffffff1681526020019081526020016000206002015490506000600460008a67ffffffffffffffff1667ffffffffffffffff16815260200190815260200160002060008b73ffffffffffffffffffffffffffffffffffffffff1673ffffffffffffffffffffffffffffffffffffffff1681526020019081526020016000206000015490506000600460008b67ffffffffffffffff1667ffffffffffffffff16815260200190815260200160002060008c73ffffffffffffffffffffffffffffffffffffffff1673ffffffffffffffffffffffffffffffffffffffff1681526020019081526020016000206001015490506000600460008c67ffffffffffffffff1667ffffffffffffffff16815260200190815260200160002060008d73ffffffffffffffffffffffffffffffffffffffff1673ffffffffffffffffffffffffffffffffffffffff1681526020019081526020016000206002015490506000604067ffffffffffffffff811115611e3857611e376132a4565b5b6040519080825280601f01601f191660200182016040528015611e6a5781602001600182028036833780820191505090505b5090508660208201528560408201526000604067ffffffffffffffff811115611e9657611e956132a4565b5b6040519080825280601f01601f191660200182016040528015611ec85781602001600182028036833780820191505090505b509050846020820152836040820152818682859b509b509b509b50505050505050505092959194509250565b60008060606000600a60008667ffffffffffffffff1667ffffffffffffffff16815260200190815260200160002060000160009054906101000a900460ff1690506000600a60008767ffffffffffffffff1667ffffffffffffffff16815260200190815260200160002060000160019054906101000a900473ffffffffffffffffffffffffffffffffffffffff1690506000600a60008867ffffffffffffffff1667ffffffffffffffff1681526020019081526020016000206003015490506000600a60008967ffffffffffffffff1667ffffffffffffffff1681526020019081526020016000206004015490506000604067ffffffffffffffff811115611fff57611ffe6132a4565b5b6040519080825280601f01601f1916602001820160405280156120315781602001600182028036833780820191505090505b50905082602082015281604082015284848297509750975050505050509193909250565b60606000600760008473ffffffffffffffffffffffffffffffffffffffff1673ffffffffffffffffffffffffffffffffffffffff1681526020019081526020016000206000015490506000600760008573ffffffffffffffffffffffffffffffffffffffff1673ffffffffffffffffffffffffffffffffffffffff1681526020019081526020016000206001015490506000604067ffffffffffffffff811115612102576121016132a4565b5b6040519080825280601f01601f1916602001820160405280156121345781602001600182028036833780820191505090505b509050826020820152816040820152809350505050919050565b6002600960008567ffffffffffffffff1667ffffffffffffffff16815260200190815260200160002060000160009054906101000a900460ff1660ff16146121cb576040517f08c379a00000000000000000000000000000000000000000000000000000000081526004016121c29061347a565b60405180910390fd5b6003600960008567ffffffffffffffff1667ffffffffffffffff16815260200190815260200160002060000160006101000a81548160ff021916908360ff16021790555033600960008567ffffffffffffffff1667ffffffffffffffff16815260200190815260200160002060020160006101000a81548173ffffffffffffffffffffffffffffffffffffffff021916908373ffffffffffffffffffffffffffffffffffffffff16021790555081600960008567ffffffffffffffff1667ffffffffffffffff1681526020019081526020016000206007018190555080600960008567ffffffffffffffff1667ffffffffffffffff16815260200190815260200160002060080181905550505050565b83600160008767ffffffffffffffff1667ffffffffffffffff16815260200190815260200160002060003373ffffffffffffffffffffffffffffffffffffffff1673ffffffffffffffffffffffffffffffffffffffff1681526020019081526020016000206000018190555082600160008767ffffffffffffffff1667ffffffffffffffff16815260200190815260200160002060003373ffffffffffffffffffffffffffffffffffffffff1673ffffffffffffffffffffffffffffffffffffffff1681526020019081526020016000206001018190555081600260008767ffffffffffffffff1667ffffffffffffffff16815260200190815260200160002060003373ffffffffffffffffffffffffffffffffffffffff1673ffffffffffffffffffffffffffffffffffffffff1681526020019081526020016000206000018190555080600260008767ffffffffffffffff1667ffffffffffffffff16815260200190815260200160002060003373ffffffffffffffffffffffffffffffffffffffff1673ffffffffffffffffffffffffffffffffffffffff168152602001908152602001600020600101819055505050505050565b6001600a60008567ffffffffffffffff1667ffffffffffffffff16815260200190815260200160002060000160009054906101000a900460ff1660ff161461250f576040517f08c379a00000000000000000000000000000000000000000000000000000000081526004016125069061350c565b60405180910390fd5b6002600a60008567ffffffffffffffff1667ffffffffffffffff16815260200190815260200160002060000160006101000a81548160ff021916908360ff16021790555033600a60008567ffffffffffffffff1667ffffffffffffffff16815260200190815260200160002060000160016101000a81548173ffffffffffffffffffffffffffffffffffffffff021916908373ffffffffffffffffffffffffffffffffffffffff16021790555081600a60008567ffffffffffffffff1667ffffffffffffffff1681526020019081526020016000206005018190555080600a60008567ffffffffffffffff1667ffffffffffffffff16815260200190815260200160002060060181905550505050565b60008060606000600960008667ffffffffffffffff1667ffffffffffffffff16815260200190815260200160002060000160009054906101000a900460ff1690506000600960008767ffffffffffffffff1667ffffffffffffffff16815260200190815260200160002060000160019054906101000a900473ffffffffffffffffffffffffffffffffffffffff1690506000600960008867ffffffffffffffff1667ffffffffffffffff1681526020019081526020016000206003015490506000600960008967ffffffffffffffff1667ffffffffffffffff1681526020019081526020016000206004015490506000604067ffffffffffffffff81111561272a576127296132a4565b5b6040519080825280601f01601f19166020018201604052801561275c5781602001600182028036833780820191505090505b50905082602082015281604082015284848297509750975050505050509193909250565b81600560008567ffffffffffffffff1667ffffffffffffffff16815260200190815260200160002060003373ffffffffffffffffffffffffffffffffffffffff1673ffffffffffffffffffffffffffffffffffffffff1681526020019081526020016000206000018190555080600560008567ffffffffffffffff1667ffffffffffffffff16815260200190815260200160002060003373ffffffffffffffffffffffffffffffffffffffff1673ffffffffffffffffffffffffffffffffffffffff16815260200190815260200160002060010181905550505050565b6001600a60008567ffffffffffffffff1667ffffffffffffffff16815260200190815260200160002060000160009054906101000a900460ff1660ff16146128da576040517f08c379a00000000000000000000000000000000000000000000000000000000081526004016128d19061359e565b60405180910390fd5b6004600a60008567ffffffffffffffff1667ffffffffffffffff16815260200190815260200160002060000160006101000a81548160ff021916908360ff16021790555033600a60008567ffffffffffffffff1667ffffffffffffffff16815260200190815260200160002060000160016101000a81548173ffffffffffffffffffffffffffffffffffffffff021916908373ffffffffffffffffffffffffffffffffffffffff16021790555081600a60008567ffffffffffffffff1667ffffffffffffffff1681526020019081526020016000206003018190555080600a60008567ffffffffffffffff1667ffffffffffffffff16815260200190815260200160002060040181905550505050565b6000600a60008567ffffffffffffffff1667ffffffffffffffff16815260200190815260200160002060000160009054906101000a900460ff1660ff1614612a67576040517f08c379a0000000000000000000000000000000000000000000000000000000008152600401612a5e90613630565b60405180910390fd5b6001600a60008567ffffffffffffffff1667ffffffffffffffff16815260200190815260200160002060000160006101000a81548160ff021916908360ff16021790555033600a60008567ffffffffffffffff1667ffffffffffffffff16815260200190815260200160002060000160016101000a81548173ffffffffffffffffffffffffffffffffffffffff021916908373ffffffffffffffffffffffffffffffffffffffff16021790555081600a60008567ffffffffffffffff1667ffffffffffffffff1681526020019081526020016000206001018190555080600a60008567ffffffffffffffff1667ffffffffffffffff16815260200190815260200160002060020181905550505050565b6002600a60008567ffffffffffffffff1667ffffffffffffffff16815260200190815260200160002060000160009054906101000a900460ff1660ff1614612bf4576040517f08c379a0000000000000000000000000000000000000000000000000000000008152600401612beb906136c2565b60405180910390fd5b6003600a60008567ffffffffffffffff1667ffffffffffffffff16815260200190815260200160002060000160006101000a81548160ff021916908360ff16021790555033600a60008567ffffffffffffffff1667ffffffffffffffff16815260200190815260200160002060000160016101000a81548173ffffffffffffffffffffffffffffffffffffffff021916908373ffffffffffffffffffffffffffffffffffffffff16021790555081600a60008567ffffffffffffffff1667ffffffffffffffff1681526020019081526020016000206007018190555080600a60008567ffffffffffffffff1667ffffffffffffffff16815260200190815260200160002060080181905550505050565b60606000600860008467ffffffffffffffff1667ffffffffffffffff1681526020019081526020016000206000015490506000600860008567ffffffffffffffff1667ffffffffffffffff1681526020019081526020016000206001015490506000604067ffffffffffffffff811115612d8157612d806132a4565b5b6040519080825280601f01601f191660200182016040528015612db35781602001600182028036833780820191505090505b509050826020820152816040820152809350505050919050565b600080fd5b600067ffffffffffffffff82169050919050565b612def81612dd2565b8114612dfa57600080fd5b50565b600081359050612e0c81612de6565b92915050565b6000819050919050565b612e2581612e12565b8114612e3057600080fd5b50565b600081359050612e4281612e1c565b92915050565b600080600060608486031215612e6157612e60612dcd565b5b6000612e6f86828701612dfd565b9350506020612e8086828701612e33565b9250506040612e9186828701612e33565b9150509250925092565b600060208284031215612eb157612eb0612dcd565b5b6000612ebf84828501612dfd565b91505092915050565b600060ff82169050919050565b612ede81612ec8565b82525050565b600073ffffffffffffffffffffffffffffffffffffffff82169050919050565b6000612f0f82612ee4565b9050919050565b612f1f81612f04565b82525050565b600081519050919050565b600082825260208201905092915050565b60005b83811015612f5f578082015181840152602081019050612f44565b60008484015250505050565b6000601f19601f8301169050919050565b6000612f8782612f25565b612f918185612f30565b9350612fa1818560208601612f41565b612faa81612f6b565b840191505092915050565b6000606082019050612fca6000830186612ed5565b612fd76020830185612f16565b8181036040830152612fe98184612f7c565b9050949350505050565b6000806040838503121561300a57613009612dcd565b5b600061301885828601612e33565b925050602061302985828601612e33565b9150509250929050565b61303c81612f04565b811461304757600080fd5b50565b60008135905061305981613033565b92915050565b6000806040838503121561307657613075612dcd565b5b60006130848582860161304a565b925050602061309585828601612dfd565b9150509250929050565b600060208201905081810360008301526130b98184612f7c565b905092915050565b600080600080600080600060e0888a0312156130e0576130df612dcd565b5b60006130ee8a828b01612dfd565b97505060206130ff8a828b01612e33565b96505060406131108a828b01612e33565b95505060606131218a828b01612e33565b94505060806131328a828b01612e33565b93505060a06131438a828b01612e33565b92505060c06131548a828b01612e33565b91505092959891949750929550565b6000604082019050818103600083015261317d8185612f7c565b905081810360208301526131918184612f7c565b90509392505050565b6131a381612e12565b82525050565b600060808201905081810360008301526131c38187612f7c565b90506131d2602083018661319a565b81810360408301526131e48185612f7c565b90506131f3606083018461319a565b95945050505050565b60006020828403121561321257613211612dcd565b5b60006132208482850161304a565b91505092915050565b600080600080600060a0868803121561324557613244612dcd565b5b600061325388828901612dfd565b955050602061326488828901612e33565b945050604061327588828901612e33565b935050606061328688828901612e33565b925050608061329788828901612e33565b9150509295509295909350565b7f4e487b7100000000000000000000000000000000000000000000000000000000600052604160045260246000fd5b600082825260208201905092915050565b7f537461747573206d757374206265203020746f20736574206170706c6963617460008201527f696f6e20666f726d000000000000000000000000000000000000000000000000602082015250565b60006133406028836132d3565b915061334b826132e4565b604082019050919050565b6000602082019050818103600083015261336f81613333565b9050919050565b7f537461747573206d757374206265203120746f207365742067756172616e746560008201527f6520636f6e6669726d6174696f6e000000000000000000000000000000000000602082015250565b60006133d2602e836132d3565b91506133dd82613376565b604082019050919050565b60006020820190508181036000830152613401816133c5565b9050919050565b7f537461747573206d757374206265203220746f20736574206c6f616e2072657160008201527f7565737400000000000000000000000000000000000000000000000000000000602082015250565b60006134646024836132d3565b915061346f82613408565b604082019050919050565b6000602082019050818103600083015261349381613457565b9050919050565b7f537461747573206d757374206265203120746f20616c6c6f77207061796d656e60008201527f7400000000000000000000000000000000000000000000000000000000000000602082015250565b60006134f66021836132d3565b91506135018261349a565b604082019050919050565b60006020820190508181036000830152613525816134e9565b9050919050565b7f537461747573206d757374206265203120746f2072656a656374207061796d6560008201527f6e74000000000000000000000000000000000000000000000000000000000000602082015250565b60006135886022836132d3565b91506135938261352c565b604082019050919050565b600060208201905081810360008301526135b78161357b565b9050919050565b7f537461747573206d757374206265203020746f207365742067756172616e746560008201527f6520636c61696d00000000000000000000000000000000000000000000000000602082015250565b600061361a6027836132d3565b9150613625826135be565b604082019050919050565b600060208201905081810360008301526136498161360d565b9050919050565b7f537461747573206d757374206265203220746f207365742067756172616e746f60008201527f7220636c61696d00000000000000000000000000000000000000000000000000602082015250565b60006136ac6027836132d3565b91506136b782613650565b604082019050919050565b600060208201905081810360008301526136db8161369f565b905091905056fea26469706673582212207c24a32d07d349afee056589fa5f124df280350c01eed68d982cd8e694996ebd64736f6c63430008110033",
  "immutableReferences": {},
  "source": "// SPDX-License-Identifier: CC-BY-SA-4.0\npragma solidity >= 0.5.0 < 0.9.0;\n\n/**\n * @title CGSContract\n * @dev Smart contract for managing initialization operations, loan applications, and guarantee payments\n * This contract implements a multi-authority attribute-based encryption system\n * combined with a loan application and guarantee payment workflow\n */\ncontract CGSContract {\n\n  // ============================================================================\n  // DATA STRUCTURES\n  // ============================================================================\n\n  /**\n   * @dev Structure to store authority metadata as two 32-byte hash parts\n   * Used for identifying and storing authority information\n   */\n  struct authoritiesNames {\n    bytes32 hashPart1;\n    bytes32 hashPart2;\n  }\n  // Mapping to store authority names for each instance ID and address\n  mapping (uint64 => mapping (address => authoritiesNames)) authoritiesName;\n\n  /**\n   * @dev Structure to store hashed first commitment element\n   * Used in multi-authority attribute-based encryption authority initialization\n   */\n  struct firstElementHashed {\n    bytes32 hashPart1;\n    bytes32 hashPart2;\n  }\n  // Mapping to store first hashed element for each instance and authority\n  mapping (uint64 => mapping (address => firstElementHashed)) firstGHashed;\n\n  /**\n   * @dev Structure to store hashed second commitment element \n   * Used in multi-authority attribute-based encryption authority initialization\n   */\n  struct secondElementHashed {\n    bytes32 hashPart1;\n    bytes32 hashPart2;\n  }\n  // Mapping to store second hashed element for each instance and authority\n  mapping (uint64 => mapping (address => secondElementHashed)) secondGHashed;\n\n  /**\n   * @dev Structure to store first element in clear that has to match the commitment\n   */\n  struct firstElement {\n    bytes32 hashPart1;\n    bytes32 hashPart2;\n    bytes32 hashPart3;\n  }\n  // Mapping to store first element for each instance and authority\n  mapping (uint64 => mapping (address => firstElement)) firstG;\n\n  /**\n   * @dev Structure to store second element in clear that has to match the commitment\n   */\n  struct secondElement {\n    bytes32 hashPart1;\n    bytes32 hashPart2;\n    bytes32 hashPart3;\n  }\n  // Mapping to store second element for each instance and authority\n  mapping (uint64 => mapping (address => secondElement)) secondG;\n\n  /**\n   * @dev Structure to store public parameters of authorities \n   * Used for cryptographic public parameter storage\n   */\n  struct publicParameters {\n    bytes32 hashPart1;\n    bytes32 hashPart2;\n  }\n  // Mapping to store public parameters for each instance and authority\n  mapping (uint64 => mapping (address => publicParameters)) parameters;\n\n  /**\n   * @dev Structure to store authorities' public keys\n   * Used for cryptographic public key storage\n   */\n  struct publicKey {\n    bytes32 hashPart1;\n    bytes32 hashPart2;\n  }\n  // Mapping to store public keys for each instance and authority\n  mapping (uint64 => mapping (address =>  publicKey)) publicKeys;\n\n  /**\n   * @dev Structure to store reader public keys\n   * Used for storing public keys of data readers\n   */\n  struct publicKeyReaders {\n    bytes32 hashPart1;\n    bytes32 hashPart2;\n  }\n  // Mapping to store reader public keys by address\n  mapping (address =>  publicKeyReaders) publicKeysReaders;\n\n\n  /**\n   * @dev Structure to store user metadata\n   * Used for storing user attribute information\n   */\n  struct userAttributes {\n    bytes32 hashPart1;\n    bytes32 hashPart2;\n  }\n  // Mapping to store user attributes by instance ID\n  mapping (uint64 => userAttributes) allUsers;\n\n  // ============================================================================\n  // LOAN APPLICATION DATA STRUCTURES\n  // ============================================================================\n\n  /**\n   * @dev Structure to manage loan application workflow\n   * Tracks the complete loan application process with status and documents\n   * Status values: 0=initial, 1=application_form_set, 2=guarantee_confirmed, 3=loan_requested\n   */\n  struct loanApplication {\n    uint8 status;                        // Current workflow status\n    address senderapplicationForm;       // Address that submitted application form\n    address senderguaranteeConfirmation; // Address that confirmed guarantee\n    address senderloanRequest;           // Address that submitted loan request\n    bytes32 applicationFormDocument1;    // First part of application form document hash\n    bytes32 applicationFormDocument2;    // Second part of application form document hash\n    bytes32 guaranteeConfirmationDocument1; // First part of guarantee confirmation hash\n    bytes32 guaranteeConfirmationDocument2; // Second part of guarantee confirmation hash\n    bytes32 loanRequestDocument1;        // First part of loan request document hash\n    bytes32 loanRequestDocument2;        // Second part of loan request document hash\n  }\n  // Mapping to store loan applications by case ID\n  mapping (uint64 => loanApplication) loanApplications;\n\n  /**\n   * @dev Structure to manage guarantee payment workflow\n   * Tracks the guarantee claim and payment approval process\n   * Status values: 0=initial, 1=claim_submitted, 2=payment_allowed, 3=guarantor_claimed, 4=payment_rejected\n   */\n  struct guaranteePayment {\n    uint8 status;                              // Current workflow status\n    address sender;                            // Address of the last action sender\n    bytes32 guaranteeClaimDocument1;           // First part of guarantee claim document hash\n    bytes32 guaranteeClaimDocument2;           // Second part of guarantee claim document hash\n    bytes32 rejectPaymentDocument1;            // First part of payment rejection document hash\n    bytes32 rejectPaymentDocument2;            // Second part of payment rejection document hash\n    bytes32 allowPaymentDocument1;             // First part of payment approval document hash\n    bytes32 allowPaymentDocument2;             // Second part of payment approval document hash\n    bytes32 guaranteeClaimGuarantorDocument1;  // First part of guarantor claim document hash\n    bytes32 guaranteeClaimGuarantorDocument2;  // Second part of guarantor claim document hash\n  }\n  // Mapping to store guarantee payments by case ID\n  mapping (uint64 => guaranteePayment) guaranteePayments;\n\n  // ============================================================================\n  // AUTHORITY INITIALIZATION AND EXECUTION FUNCTIONS\n  // ============================================================================\n\n  /**\n   * @dev Sets authorities metadata for a specific instance\n   * @param _instanceID The instance identifier\n   * @param _hash1 First part of the authority ipfs file hash\n   * @param _hash2 Second part of the authority ipfs file hash\n   */\n\n  function setAuthoritiesNames(uint64 _instanceID, bytes32 _hash1, bytes32 _hash2) public {\n    // Store the authority name as two separate hash parts\n    authoritiesName[_instanceID][msg.sender].hashPart1 = _hash1;\n    authoritiesName[_instanceID][msg.sender].hashPart2 = _hash2;\n  }\n\n  /**\n   * @dev Retrieves authority names for a specific address and instance\n   * @param _address The address of the authority\n   * @param _instanceID The instance identifier\n   * @return joined The concatenated bytes of the authority name hash parts\n   */\n  function getAuthoritiesNames(address _address, uint64 _instanceID) public view returns (bytes memory) {\n    // Get the two hash parts\n    bytes32 p1 = authoritiesName[_instanceID][_address].hashPart1;\n    bytes32 p2 = authoritiesName[_instanceID][_address].hashPart2;\n    \n    // Create a 64-byte array to hold the concatenated hash\n    bytes memory joined = new bytes(64);\n    \n    // Use assembly to efficiently copy the hash parts\n    assembly {\n      mstore(add(joined, 32), p1)  // Store first part at offset 32\n      mstore(add(joined, 64), p2)  // Store second part at offset 64\n    }\n    return joined;\n  }\n\n  /**\n   * @dev Sets hashed cryptographic elements for an instance\n   * @param _instanceID The instance identifier\n   * @param _hash1 First part of the first hashed element\n   * @param _hash2 Second part of the first hashed element\n   * @param _hash3 First part of the second hashed element\n   * @param _hash4 Second part of the second hashed element\n   */\n  function setElementHashed(uint64 _instanceID, bytes32 _hash1, bytes32 _hash2, bytes32 _hash3, bytes32 _hash4) public {\n    // Store first hashed element\n    firstGHashed[_instanceID][msg.sender].hashPart1 = _hash1;\n    firstGHashed[_instanceID][msg.sender].hashPart2 = _hash2;\n    \n    // Store second hashed element\n    secondGHashed[_instanceID][msg.sender].hashPart1 = _hash3;\n    secondGHashed[_instanceID][msg.sender].hashPart2 = _hash4;\n  }\n\n  /**\n   * @dev Retrieves hashed cryptographic elements for an address and instance\n   * @param _address The address of the authority\n   * @param _instanceID The instance identifier\n   * @return Two concatenated bytes arrays representing the first and second hashed elements\n   */\n  function getElementHashed(address _address, uint64 _instanceID) public view returns (bytes memory, bytes memory) {\n    // Get hash parts for both elements\n    bytes32 p1 = firstGHashed[_instanceID][_address].hashPart1;\n    bytes32 p2 = firstGHashed[_instanceID][_address].hashPart2;\n    bytes32 p3 = secondGHashed[_instanceID][_address].hashPart1;\n    bytes32 p4 = secondGHashed[_instanceID][_address].hashPart2;\n    \n    // Build first element bytes\n    bytes memory joined = new bytes(64);\n    assembly {\n      mstore(add(joined, 32), p1)\n      mstore(add(joined, 64), p2)\n    }\n    \n    // Build second element bytes\n    bytes memory joinedsec = new bytes(64);\n    assembly {\n      mstore(add(joinedsec, 32), p3)\n      mstore(add(joinedsec, 64), p4)\n    }\n    return (joined, joinedsec);\n  }\n\n  /**\n   * @dev Sets in clear full cryptographic elements (3 parts each) for an instance\n   * @param _instanceID The instance identifier\n   * @param _hash1 First part of the first element\n   * @param _hash2 Second part of the first element\n   * @param _hash3 Third part of the first element\n   * @param _hash4 First part of the second element\n   * @param _hash5 Second part of the second element\n   * @param _hash6 Third part of the second element\n   */\n  function setElement(uint64 _instanceID, bytes32 _hash1, bytes32 _hash2, bytes32 _hash3, bytes32 _hash4, bytes32 _hash5, bytes32 _hash6) public {\n    // Store first element (3 parts)\n    firstG[_instanceID][msg.sender].hashPart1 = _hash1;\n    firstG[_instanceID][msg.sender].hashPart2 = _hash2;\n    firstG[_instanceID][msg.sender].hashPart3 = _hash3;\n    \n    // Store second element (3 parts)\n    secondG[_instanceID][msg.sender].hashPart1 = _hash4;\n    secondG[_instanceID][msg.sender].hashPart2 = _hash5;\n    secondG[_instanceID][msg.sender].hashPart3 = _hash6;\n  }\n\n  /**\n   * @dev Retrieves in clear full cryptographic elements for an address and instance\n   * @param _address The address of the authority\n   * @param _instanceID The instance identifier\n   * @return Four values: first element concatenated bytes, third part of first element,\n   *         second element concatenated bytes, third part of second element\n   */\n  function getElement(address _address, uint64 _instanceID) public view returns (bytes memory, bytes32, bytes memory, bytes32) {\n    // Get all hash parts\n    bytes32 p1 = firstG[_instanceID][_address].hashPart1;\n    bytes32 p2 = firstG[_instanceID][_address].hashPart2;\n    bytes32 p3 = firstG[_instanceID][_address].hashPart3;\n    bytes32 p4 = secondG[_instanceID][_address].hashPart1;\n    bytes32 p5 = secondG[_instanceID][_address].hashPart2;\n    bytes32 p6 = secondG[_instanceID][_address].hashPart3;\n    \n    // Build first element bytes (first two parts concatenated)\n    bytes memory joined = new bytes(64);\n    assembly {\n      mstore(add(joined, 32), p1)\n      mstore(add(joined, 64), p2)\n    }\n    \n    // Build second element bytes (first two parts concatenated)\n    bytes memory joinedsec = new bytes(64);\n    assembly {\n      mstore(add(joinedsec, 32), p4)\n      mstore(add(joinedsec, 64), p5)\n    }\n\n    return (joined, p3, joinedsec, p6);\n  }\n\n  /**\n   * @dev Sets public parameters for an instance\n   * @param _instanceID The instance identifier\n   * @param _hash1 First part of the public parameters hash\n   * @param _hash2 Second part of the public parameters hash\n   */\n  function setPublicParameters(uint64 _instanceID, bytes32 _hash1, bytes32 _hash2) public {\n    parameters[_instanceID][msg.sender].hashPart1 = _hash1;\n    parameters[_instanceID][msg.sender].hashPart2 = _hash2;\n  }\n\n  /**\n   * @dev Retrieves public parameters for an address and instance\n   * @param _address The address of the authority\n   * @param _instanceID The instance identifier\n   * @return joined The concatenated bytes of the public parameters hash parts\n   */\n  function getPublicParameters(address _address, uint64 _instanceID) public view returns (bytes memory) {\n    bytes32 p1 = parameters[_instanceID][_address].hashPart1;\n    bytes32 p2 = parameters[_instanceID][_address].hashPart2;\n    \n    bytes memory joined = new bytes(64);\n    assembly {\n      mstore(add(joined, 32), p1)\n      mstore(add(joined, 64), p2)\n    }\n    return joined;\n  }\n\n  /**\n   * @dev Sets authorities' public keys for an instance\n   * @param _instanceID The instance identifier\n   * @param _hash1 First part of the public key hash\n   * @param _hash2 Second part of the public key hash\n   */\n  function setPublicKey(uint64 _instanceID, bytes32 _hash1, bytes32 _hash2) public {\n    publicKeys[_instanceID][msg.sender].hashPart1 = _hash1;\n    publicKeys[_instanceID][msg.sender].hashPart2 = _hash2;\n  }\n\n  /**\n   * @dev Retrieves authorities' public keys for an instance\n   * @param _address The address of the authority\n   * @param _instanceID The instance identifier\n   * @return joined The concatenated bytes of the public key hash parts\n   */\n  function getPublicKey(address _address, uint64 _instanceID) public view returns (bytes memory) {\n    bytes32 p2 = publicKeys[_instanceID][_address].hashPart1;\n    bytes32 p3 = publicKeys[_instanceID][_address].hashPart2;\n    \n    bytes memory joined = new bytes(64);\n    assembly {\n      mstore(add(joined, 32), p2)\n      mstore(add(joined, 64), p3)\n    }\n      return (joined);\n  }\n\n  /**\n   * @dev Sets public key for readers (users who can encrypt and decrypt data)\n   * @param _hash1 First part of the reader public key hash\n   * @param _hash2 Second part of the reader public key hash\n   */\n  function setPublicKeyReaders(bytes32 _hash1, bytes32 _hash2) public {\n    publicKeysReaders[msg.sender].hashPart1 = _hash1;\n    publicKeysReaders[msg.sender].hashPart2 = _hash2;\n  }\n\n  /**\n   * @dev Retrieves public key for a reader\n   * @param _address The address of the reader\n   * @return joined The concatenated bytes of the reader's public key hash parts\n   */\n  function getPublicKeyReaders(address _address) public view returns (bytes memory) {\n    bytes32 p2 = publicKeysReaders[_address].hashPart1;\n    bytes32 p3 = publicKeysReaders[_address].hashPart2;\n    \n    bytes memory joined = new bytes(64);\n    assembly {\n      mstore(add(joined, 32), p2)\n      mstore(add(joined, 64), p3)\n    }\n      return (joined);\n  }\n\n\n\n  /**\n   * @dev Sets user attributes for cryptographic operations\n   * @param _instanceID The instance identifier\n   * @param _hash1 First part of the user attributes hash\n   * @param _hash2 Second part of the user attributes hash\n   */\n  function setUserAttributes(uint64 _instanceID, bytes32 _hash1, bytes32 _hash2) public {\n    allUsers[_instanceID].hashPart1 = _hash1;\n    allUsers[_instanceID].hashPart2 = _hash2;\n  }\n\n  /**\n   * @dev Retrieves user attributes for an instance\n   * @param _instanceID The instance identifier\n   * @return joined The concatenated bytes of the user attributes hash parts\n   */\n  function getUserAttributes(uint64 _instanceID) public view returns (bytes memory) {\n    bytes32 p1 = allUsers[_instanceID].hashPart1;\n    bytes32 p2 = allUsers[_instanceID].hashPart2;\n    \n    bytes memory joined = new bytes(64);\n    assembly {\n      mstore(add(joined, 32), p1)\n      mstore(add(joined, 64), p2)\n    }\n    return joined;\n  }\n\n  // ============================================================================\n  // LOAN APPLICATION WORKFLOW FUNCTIONS\n  // ============================================================================\n\n  /**\n   * @dev Initiates loan application by setting application form\n   * This is the first step in the loan application workflow (status 0 -> 1)\n   * @param _caseID The unique case identifier for this loan application\n   * @param _hash1 First part of the application form document hash\n   * @param _hash2 Second part of the application form document hash\n   */\n  function setApplicationForm(uint64 _caseID, bytes32 _hash1, bytes32 _hash2) public {\n    require(loanApplications[_caseID].status == 0, \"Status must be 0 to set application form\");\n\n    // Update status and store application form details\n    loanApplications[_caseID].status = 1;\n    loanApplications[_caseID].senderapplicationForm = msg.sender;\n    loanApplications[_caseID].applicationFormDocument1 = _hash1;\n    loanApplications[_caseID].applicationFormDocument2 = _hash2;\n  }\n\n  /**\n   * @dev Retrieves application form details\n   * @param _caseID The unique case identifier for this loan application\n   * @return status Current status of the loan application\n   * @return sender Address that submitted the application form\n   * @return joined Concatenated bytes of the application form document hash\n   */\n  function getApplicationForm(uint64 _caseID) public view returns (uint8, address, bytes memory) {\n    uint8 status = loanApplications[_caseID].status;\n    address sender = loanApplications[_caseID].senderapplicationForm;\n    bytes32 p1 = loanApplications[_caseID].applicationFormDocument1;\n    bytes32 p2 = loanApplications[_caseID].applicationFormDocument2;\n    \n    bytes memory joined = new bytes(64);\n    assembly {\n      mstore(add(joined, 32), p1)\n      mstore(add(joined, 64), p2)\n    }\n    return (status, sender, joined);\n  }\n\n  /**\n   * @dev Sets guarantee confirmation for loan application\n   * This is the second step in the loan application workflow (status 1 -> 2)\n   * @param _caseID The unique case identifier for this loan application\n   * @param _hash1 First part of the guarantee confirmation document hash\n   * @param _hash2 Second part of the guarantee confirmation document hash\n   */\n  function setGuaranteeConfirmation(uint64 _caseID, bytes32 _hash1, bytes32 _hash2) public {\n    require(loanApplications[_caseID].status == 1, \"Status must be 1 to set guarantee confirmation\");\n\n    // Update status and store guarantee confirmation details\n    loanApplications[_caseID].status = 2;\n    loanApplications[_caseID].senderguaranteeConfirmation = msg.sender;\n    loanApplications[_caseID].guaranteeConfirmationDocument1 = _hash1;\n    loanApplications[_caseID].guaranteeConfirmationDocument2 = _hash2;\n  }\n\n  /**\n   * @dev Retrieves guarantee confirmation details\n   * @param _caseID The unique case identifier for this loan application\n   * @return status Current status of the loan application\n   * @return sender Address that confirmed the guarantee\n   * @return joined Concatenated bytes of the guarantee confirmation document hash\n   */\n  function getGuaranteeConfirmation(uint64 _caseID) public view returns (uint8, address, bytes memory) {\n    uint8 status = loanApplications[_caseID].status;\n    address sender = loanApplications[_caseID].senderguaranteeConfirmation;\n    bytes32 p1 = loanApplications[_caseID].guaranteeConfirmationDocument1;\n    bytes32 p2 = loanApplications[_caseID].guaranteeConfirmationDocument2;\n    \n    bytes memory joined = new bytes(64);\n    assembly {\n      mstore(add(joined, 32), p1)\n      mstore(add(joined, 64), p2)\n    }\n    return (status, sender, joined);\n  }\n\n  /**\n   * @dev Finalizes loan application by setting loan request\n   * This is the final step in the loan application workflow (status 2 -> 3)\n   * @param _caseID The unique case identifier for this loan application\n   * @param _hash1 First part of the loan request document hash\n   * @param _hash2 Second part of the loan request document hash\n   */\n  function setLoanRequest(uint64 _caseID, bytes32 _hash1, bytes32 _hash2) public {\n      require(loanApplications[_caseID].status == 2, \"Status must be 2 to set loan request\");\n\n      // Complete the loan application workflow\n      loanApplications[_caseID].status = 3;\n      loanApplications[_caseID].senderloanRequest = msg.sender;\n      loanApplications[_caseID].loanRequestDocument1 = _hash1;\n      loanApplications[_caseID].loanRequestDocument2 = _hash2;\n  }\n\n  /**\n   * @dev Retrieves loan request details\n   * @param _caseID The unique case identifier for this loan application\n   * @return status Current status of the loan application\n   * @return sender Address that submitted the loan request\n   * @return joined Concatenated bytes of the loan request document hash\n   */\n  function getLoanRequest(uint64 _caseID) public view returns (uint8, address, bytes memory) {\n    uint8 status = loanApplications[_caseID].status;\n    address sender = loanApplications[_caseID].senderloanRequest;\n    bytes32 p1 = loanApplications[_caseID].loanRequestDocument1;\n    bytes32 p2 = loanApplications[_caseID].loanRequestDocument2;\n    \n    bytes memory joined = new bytes(64);\n    assembly {\n      mstore(add(joined, 32), p1)\n      mstore(add(joined, 64), p2)\n    }\n    return (status, sender, joined);\n  }\n\n  // ============================================================================\n  // GUARANTEE PAYMENT WORKFLOW FUNCTIONS\n  // ============================================================================\n\n  /**\n   * @dev Initiates guarantee payment workflow by submitting a guarantee claim\n   * This is the first step in the guarantee payment workflow (status 0 -> 1)\n   * @param _caseID The unique case identifier for this guarantee payment\n   * @param _hash1 First part of the guarantee claim document hash\n   * @param _hash2 Second part of the guarantee claim document hash\n   */\n  function setGuaranteeClaim(uint64 _caseID, bytes32 _hash1, bytes32 _hash2) public {\n    require(guaranteePayments[_caseID].status == 0, \"Status must be 0 to set guarantee claim\");\n\n    // Update status and store guarantee claim details\n    guaranteePayments[_caseID].status = 1;\n    guaranteePayments[_caseID].sender = msg.sender;\n    guaranteePayments[_caseID].guaranteeClaimDocument1 = _hash1;\n    guaranteePayments[_caseID].guaranteeClaimDocument2 = _hash2;\n  }\n\n  /**\n   * @dev Retrieves guarantee claim details\n   * @param _caseID The unique case identifier for this guarantee payment\n   * @return status Current status of the guarantee payment\n   * @return sender Address that submitted the guarantee claim\n   * @return joined Concatenated bytes of the guarantee claim document hash\n   */\n  function getGuaranteeClaim(uint64 _caseID) public view returns (uint8, address, bytes memory) {\n    uint8 status = guaranteePayments[_caseID].status;\n    address sender = guaranteePayments[_caseID].sender;\n    bytes32 p1 = guaranteePayments[_caseID].guaranteeClaimDocument1;\n    bytes32 p2 = guaranteePayments[_caseID].guaranteeClaimDocument2;\n    \n    bytes memory joined = new bytes(64);\n    assembly {\n      mstore(add(joined, 32), p1)\n      mstore(add(joined, 64), p2)\n    }\n    return (status, sender, joined);\n  }\n\n  /**\n   * @dev Rejects guarantee payment request\n   * This transitions from claim submitted to payment rejected (status 1 -> 4)\n   * @param _caseID The unique case identifier for this guarantee payment\n   * @param _hash1 First part of the payment rejection document hash\n   * @param _hash2 Second part of the payment rejection document hash\n   */\n  function setRejectPayment(uint64 _caseID, bytes32 _hash1, bytes32 _hash2) public {\n    require(guaranteePayments[_caseID].status == 1, \"Status must be 1 to reject payment\");\n\n    // Update status to rejected and store rejection details\n    guaranteePayments[_caseID].status = 4;\n    guaranteePayments[_caseID].sender = msg.sender;\n    guaranteePayments[_caseID].rejectPaymentDocument1 = _hash1;\n    guaranteePayments[_caseID].rejectPaymentDocument2 = _hash2;\n  }\n\n  /**\n   * @dev Retrieves payment rejection details\n   * @param _caseID The unique case identifier for this guarantee payment\n   * @return status Current status of the guarantee payment\n   * @return sender Address that rejected the payment\n   * @return joined Concatenated bytes of the payment rejection document hash\n   * @notice There's a bug in the original code - second hash part uses Document1 instead of Document2\n   */\n  function getRejectPayment(uint64 _caseID) public view returns (uint8, address, bytes memory) {\n    uint8 status = guaranteePayments[_caseID].status;\n    address sender = guaranteePayments[_caseID].sender;\n    bytes32 p1 = guaranteePayments[_caseID].rejectPaymentDocument1;\n    bytes32 p2 = guaranteePayments[_caseID].rejectPaymentDocument2;\n    \n    bytes memory joined = new bytes(64);\n    assembly {\n      mstore(add(joined, 32), p1)\n      mstore(add(joined, 64), p2)\n    }\n    return (status, sender, joined);\n  }\n\n  /**\n   * @dev Approves guarantee payment request\n   * This transitions from claim submitted to payment allowed (status 1 -> 2)\n   * @param _caseID The unique case identifier for this guarantee payment\n   * @param _hash1 First part of the payment approval document hash\n   * @param _hash2 Second part of the payment approval document hash\n   */\n  function setAllowPayment(uint64 _caseID, bytes32 _hash1, bytes32 _hash2) public {\n    require(guaranteePayments[_caseID].status == 1, \"Status must be 1 to allow payment\");\n\n    // Update status to allowed and store approval details\n    guaranteePayments[_caseID].status = 2;\n    guaranteePayments[_caseID].sender = msg.sender;\n    guaranteePayments[_caseID].allowPaymentDocument1 = _hash1;\n    guaranteePayments[_caseID].allowPaymentDocument2 = _hash2;\n  }\n\n  /**\n   * @dev Retrieves payment approval details\n   * @param _caseID The unique case identifier for this guarantee payment\n   * @return status Current status of the guarantee payment\n   * @return sender Address that approved the payment\n   * @return joined Concatenated bytes of the payment approval document hash\n   */\n  function getAllowPayment(uint64 _caseID) public view returns (uint8, address, bytes memory) {\n    uint8 status = guaranteePayments[_caseID].status;\n    address sender = guaranteePayments[_caseID].sender;\n    bytes32 p1 = guaranteePayments[_caseID].allowPaymentDocument1;\n    bytes32 p2 = guaranteePayments[_caseID].allowPaymentDocument2;\n    \n    bytes memory joined = new bytes(64);\n    assembly {\n      mstore(add(joined, 32), p1)\n      mstore(add(joined, 64), p2)\n    }\n    return (status, sender, joined);\n  }\n\n  /**\n   * @dev Finalizes guarantee payment by allowing guarantor to claim\n   * This is the final step in the guarantee payment workflow (status 2 -> 3)\n   * @param _caseID The unique case identifier for this guarantee payment\n   * @param _hash1 First part of the guarantor claim document hash\n   * @param _hash2 Second part of the guarantor claim document hash\n   */\n  function setGuaranteeClaimGuarantor(uint64 _caseID, bytes32 _hash1, bytes32 _hash2) public {\n    require(guaranteePayments[_caseID].status == 2, \"Status must be 2 to set guarantor claim\");\n\n    // Complete the guarantee payment workflow\n    guaranteePayments[_caseID].status = 3;\n    guaranteePayments[_caseID].sender = msg.sender;\n    guaranteePayments[_caseID].guaranteeClaimGuarantorDocument1 = _hash1;\n    guaranteePayments[_caseID].guaranteeClaimGuarantorDocument2 = _hash2;\n  }\n\n  /**\n   * @dev Retrieves guarantor claim details\n   * @param _caseID The unique case identifier for this guarantee payment\n   * @return status Current status of the guarantee payment\n   * @return sender Address that submitted the guarantor claim\n   * @return joined Concatenated bytes of the guarantor claim document hash\n   */\n  function getGuaranteeClaimGuarantor(uint64 _caseID) public view returns (uint8, address, bytes memory) {\n    uint8 status = guaranteePayments[_caseID].status;\n    address sender = guaranteePayments[_caseID].sender;\n    bytes32 p1 = guaranteePayments[_caseID].guaranteeClaimGuarantorDocument1;\n    bytes32 p2 = guaranteePayments[_caseID].guaranteeClaimGuarantorDocument2;\n    \n    bytes memory joined = new bytes(64);\n    assembly {\n      mstore(add(joined, 32), p1)\n      mstore(add(joined, 64), p2)\n    }\n    return (status, sender, joined);\n  }\n\n}\n\n",
  "sourcePath": "/CGS/blockchain/contracts/CGSContract.sol",
  "compiler": {
    "name": "solc",
    "version": "0.8.17+commit.8df45f5f.Emscripten.clang"
  },
  "schemaVersion": "3.4.11",
  "updatedAt": "2025-07-06T16:15:23.943Z",
  "networkType": "ethereum",
  "devdoc": {
    "details": "Smart contract for managing initialization operations, loan applications, and guarantee payments This contract implements a multi-authority attribute-based encryption system combined with a loan application and guarantee payment workflow",
    "kind": "dev",
    "methods": {
      "getAllowPayment(uint64)": {
        "details": "Retrieves payment approval details",
        "params": {
          "_caseID": "The unique case identifier for this guarantee payment"
        },
        "returns": {
          "_0": "status Current status of the guarantee payment",
          "_1": "sender Address that approved the payment",
          "_2": "joined Concatenated bytes of the payment approval document hash"
        }
      },
      "getApplicationForm(uint64)": {
        "details": "Retrieves application form details",
        "params": {
          "_caseID": "The unique case identifier for this loan application"
        },
        "returns": {
          "_0": "status Current status of the loan application",
          "_1": "sender Address that submitted the application form",
          "_2": "joined Concatenated bytes of the application form document hash"
        }
      },
      "getAuthoritiesNames(address,uint64)": {
        "details": "Retrieves authority names for a specific address and instance",
        "params": {
          "_address": "The address of the authority",
          "_instanceID": "The instance identifier"
        },
        "returns": {
          "_0": "joined The concatenated bytes of the authority name hash parts"
        }
      },
      "getElement(address,uint64)": {
        "details": "Retrieves in clear full cryptographic elements for an address and instance",
        "params": {
          "_address": "The address of the authority",
          "_instanceID": "The instance identifier"
        },
        "returns": {
          "_0": "Four values: first element concatenated bytes, third part of first element,         second element concatenated bytes, third part of second element"
        }
      },
      "getElementHashed(address,uint64)": {
        "details": "Retrieves hashed cryptographic elements for an address and instance",
        "params": {
          "_address": "The address of the authority",
          "_instanceID": "The instance identifier"
        },
        "returns": {
          "_0": "Two concatenated bytes arrays representing the first and second hashed elements"
        }
      },
      "getGuaranteeClaim(uint64)": {
        "details": "Retrieves guarantee claim details",
        "params": {
          "_caseID": "The unique case identifier for this guarantee payment"
        },
        "returns": {
          "_0": "status Current status of the guarantee payment",
          "_1": "sender Address that submitted the guarantee claim",
          "_2": "joined Concatenated bytes of the guarantee claim document hash"
        }
      },
      "getGuaranteeClaimGuarantor(uint64)": {
        "details": "Retrieves guarantor claim details",
        "params": {
          "_caseID": "The unique case identifier for this guarantee payment"
        },
        "returns": {
          "_0": "status Current status of the guarantee payment",
          "_1": "sender Address that submitted the guarantor claim",
          "_2": "joined Concatenated bytes of the guarantor claim document hash"
        }
      },
      "getGuaranteeConfirmation(uint64)": {
        "details": "Retrieves guarantee confirmation details",
        "params": {
          "_caseID": "The unique case identifier for this loan application"
        },
        "returns": {
          "_0": "status Current status of the loan application",
          "_1": "sender Address that confirmed the guarantee",
          "_2": "joined Concatenated bytes of the guarantee confirmation document hash"
        }
      },
      "getLoanRequest(uint64)": {
        "details": "Retrieves loan request details",
        "params": {
          "_caseID": "The unique case identifier for this loan application"
        },
        "returns": {
          "_0": "status Current status of the loan application",
          "_1": "sender Address that submitted the loan request",
          "_2": "joined Concatenated bytes of the loan request document hash"
        }
      },
      "getPublicKey(address,uint64)": {
        "details": "Retrieves authorities' public keys for an instance",
        "params": {
          "_address": "The address of the authority",
          "_instanceID": "The instance identifier"
        },
        "returns": {
          "_0": "joined The concatenated bytes of the public key hash parts"
        }
      },
      "getPublicKeyReaders(address)": {
        "details": "Retrieves public key for a reader",
        "params": {
          "_address": "The address of the reader"
        },
        "returns": {
          "_0": "joined The concatenated bytes of the reader's public key hash parts"
        }
      },
      "getPublicParameters(address,uint64)": {
        "details": "Retrieves public parameters for an address and instance",
        "params": {
          "_address": "The address of the authority",
          "_instanceID": "The instance identifier"
        },
        "returns": {
          "_0": "joined The concatenated bytes of the public parameters hash parts"
        }
      },
      "getRejectPayment(uint64)": {
        "details": "Retrieves payment rejection details",
        "params": {
          "_caseID": "The unique case identifier for this guarantee payment"
        },
        "returns": {
          "_0": "status Current status of the guarantee payment",
          "_1": "sender Address that rejected the payment",
          "_2": "joined Concatenated bytes of the payment rejection document hash"
        }
      },
      "getUserAttributes(uint64)": {
        "details": "Retrieves user attributes for an instance",
        "params": {
          "_instanceID": "The instance identifier"
        },
        "returns": {
          "_0": "joined The concatenated bytes of the user attributes hash parts"
        }
      },
      "setAllowPayment(uint64,bytes32,bytes32)": {
        "details": "Approves guarantee payment request This transitions from claim submitted to payment allowed (status 1 -> 2)",
        "params": {
          "_caseID": "The unique case identifier for this guarantee payment",
          "_hash1": "First part of the payment approval document hash",
          "_hash2": "Second part of the payment approval document hash"
        }
      },
      "setApplicationForm(uint64,bytes32,bytes32)": {
        "details": "Initiates loan application by setting application form This is the first step in the loan application workflow (status 0 -> 1)",
        "params": {
          "_caseID": "The unique case identifier for this loan application",
          "_hash1": "First part of the application form document hash",
          "_hash2": "Second part of the application form document hash"
        }
      },
      "setAuthoritiesNames(uint64,bytes32,bytes32)": {
        "details": "Sets authorities metadata for a specific instance",
        "params": {
          "_hash1": "First part of the authority ipfs file hash",
          "_hash2": "Second part of the authority ipfs file hash",
          "_instanceID": "The instance identifier"
        }
      },
      "setElement(uint64,bytes32,bytes32,bytes32,bytes32,bytes32,bytes32)": {
        "details": "Sets in clear full cryptographic elements (3 parts each) for an instance",
        "params": {
          "_hash1": "First part of the first element",
          "_hash2": "Second part of the first element",
          "_hash3": "Third part of the first element",
          "_hash4": "First part of the second element",
          "_hash5": "Second part of the second element",
          "_hash6": "Third part of the second element",
          "_instanceID": "The instance identifier"
        }
      },
      "setElementHashed(uint64,bytes32,bytes32,bytes32,bytes32)": {
        "details": "Sets hashed cryptographic elements for an instance",
        "params": {
          "_hash1": "First part of the first hashed element",
          "_hash2": "Second part of the first hashed element",
          "_hash3": "First part of the second hashed element",
          "_hash4": "Second part of the second hashed element",
          "_instanceID": "The instance identifier"
        }
      },
      "setGuaranteeClaim(uint64,bytes32,bytes32)": {
        "details": "Initiates guarantee payment workflow by submitting a guarantee claim This is the first step in the guarantee payment workflow (status 0 -> 1)",
        "params": {
          "_caseID": "The unique case identifier for this guarantee payment",
          "_hash1": "First part of the guarantee claim document hash",
          "_hash2": "Second part of the guarantee claim document hash"
        }
      },
      "setGuaranteeClaimGuarantor(uint64,bytes32,bytes32)": {
        "details": "Finalizes guarantee payment by allowing guarantor to claim This is the final step in the guarantee payment workflow (status 2 -> 3)",
        "params": {
          "_caseID": "The unique case identifier for this guarantee payment",
          "_hash1": "First part of the guarantor claim document hash",
          "_hash2": "Second part of the guarantor claim document hash"
        }
      },
      "setGuaranteeConfirmation(uint64,bytes32,bytes32)": {
        "details": "Sets guarantee confirmation for loan application This is the second step in the loan application workflow (status 1 -> 2)",
        "params": {
          "_caseID": "The unique case identifier for this loan application",
          "_hash1": "First part of the guarantee confirmation document hash",
          "_hash2": "Second part of the guarantee confirmation document hash"
        }
      },
      "setLoanRequest(uint64,bytes32,bytes32)": {
        "details": "Finalizes loan application by setting loan request This is the final step in the loan application workflow (status 2 -> 3)",
        "params": {
          "_caseID": "The unique case identifier for this loan application",
          "_hash1": "First part of the loan request document hash",
          "_hash2": "Second part of the loan request document hash"
        }
      },
      "setPublicKey(uint64,bytes32,bytes32)": {
        "details": "Sets authorities' public keys for an instance",
        "params": {
          "_hash1": "First part of the public key hash",
          "_hash2": "Second part of the public key hash",
          "_instanceID": "The instance identifier"
        }
      },
      "setPublicKeyReaders(bytes32,bytes32)": {
        "details": "Sets public key for readers (users who can encrypt and decrypt data)",
        "params": {
          "_hash1": "First part of the reader public key hash",
          "_hash2": "Second part of the reader public key hash"
        }
      },
      "setPublicParameters(uint64,bytes32,bytes32)": {
        "details": "Sets public parameters for an instance",
        "params": {
          "_hash1": "First part of the public parameters hash",
          "_hash2": "Second part of the public parameters hash",
          "_instanceID": "The instance identifier"
        }
      },
      "setRejectPayment(uint64,bytes32,bytes32)": {
        "details": "Rejects guarantee payment request This transitions from claim submitted to payment rejected (status 1 -> 4)",
        "params": {
          "_caseID": "The unique case identifier for this guarantee payment",
          "_hash1": "First part of the payment rejection document hash",
          "_hash2": "Second part of the payment rejection document hash"
        }
      },
      "setUserAttributes(uint64,bytes32,bytes32)": {
        "details": "Sets user attributes for cryptographic operations",
        "params": {
          "_hash1": "First part of the user attributes hash",
          "_hash2": "Second part of the user attributes hash",
          "_instanceID": "The instance identifier"
        }
      }
    },
    "title": "CGSContract",
    "version": 1
  },
  "userdoc": {
    "kind": "user",
    "methods": {
      "getRejectPayment(uint64)": {
        "notice": "There's a bug in the original code - second hash part uses Document1 instead of Document2"
      }
    },
    "version": 1
  }
}