{
  "contractName": "MARTSIAEth",
  "abi": [
    {
      "inputs": [
        {
          "internalType": "uint64",
          "name": "_instanceID",
          "type": "uint64"
        },
        {
          "internalType": "bytes32",
          "name": "_hash1",
          "type": "bytes32"
        },
        {
          "internalType": "bytes32",
          "name": "_hash2",
          "type": "bytes32"
        }
      ],
      "name": "setAuthoritiesNames",
      "outputs": [],
      "stateMutability": "nonpayable",
      "type": "function"
    },
    {
      "inputs": [
        {
          "internalType": "address",
          "name": "_address",
          "type": "address"
        },
        {
          "internalType": "uint64",
          "name": "_instanceID",
          "type": "uint64"
        }
      ],
      "name": "getAuthoritiesNames",
      "outputs": [
        {
          "internalType": "bytes",
          "name": "",
          "type": "bytes"
        }
      ],
      "stateMutability": "view",
      "type": "function",
      "constant": true
    },
    {
      "inputs": [
        {
          "internalType": "uint64",
          "name": "_instanceID",
          "type": "uint64"
        },
        {
          "internalType": "bytes32",
          "name": "_hash1",
          "type": "bytes32"
        },
        {
          "internalType": "bytes32",
          "name": "_hash2",
          "type": "bytes32"
        },
        {
          "internalType": "bytes32",
          "name": "_hash3",
          "type": "bytes32"
        },
        {
          "internalType": "bytes32",
          "name": "_hash4",
          "type": "bytes32"
        }
      ],
      "name": "setElementHashed",
      "outputs": [],
      "stateMutability": "nonpayable",
      "type": "function"
    },
    {
      "inputs": [
        {
          "internalType": "address",
          "name": "_address",
          "type": "address"
        },
        {
          "internalType": "uint64",
          "name": "_instanceID",
          "type": "uint64"
        }
      ],
      "name": "getElementHashed",
      "outputs": [
        {
          "internalType": "bytes",
          "name": "",
          "type": "bytes"
        },
        {
          "internalType": "bytes",
          "name": "",
          "type": "bytes"
        }
      ],
      "stateMutability": "view",
      "type": "function",
      "constant": true
    },
    {
      "inputs": [
        {
          "internalType": "uint64",
          "name": "_instanceID",
          "type": "uint64"
        },
        {
          "internalType": "bytes32",
          "name": "_hash1",
          "type": "bytes32"
        },
        {
          "internalType": "bytes32",
          "name": "_hash2",
          "type": "bytes32"
        },
        {
          "internalType": "bytes32",
          "name": "_hash3",
          "type": "bytes32"
        },
        {
          "internalType": "bytes32",
          "name": "_hash4",
          "type": "bytes32"
        },
        {
          "internalType": "bytes32",
          "name": "_hash5",
          "type": "bytes32"
        },
        {
          "internalType": "bytes32",
          "name": "_hash6",
          "type": "bytes32"
        }
      ],
      "name": "setElement",
      "outputs": [],
      "stateMutability": "nonpayable",
      "type": "function"
    },
    {
      "inputs": [
        {
          "internalType": "address",
          "name": "_address",
          "type": "address"
        },
        {
          "internalType": "uint64",
          "name": "_instanceID",
          "type": "uint64"
        }
      ],
      "name": "getElement",
      "outputs": [
        {
          "internalType": "bytes",
          "name": "",
          "type": "bytes"
        },
        {
          "internalType": "bytes32",
          "name": "",
          "type": "bytes32"
        },
        {
          "internalType": "bytes",
          "name": "",
          "type": "bytes"
        },
        {
          "internalType": "bytes32",
          "name": "",
          "type": "bytes32"
        }
      ],
      "stateMutability": "view",
      "type": "function",
      "constant": true
    },
    {
      "inputs": [
        {
          "internalType": "uint64",
          "name": "_instanceID",
          "type": "uint64"
        },
        {
          "internalType": "bytes32",
          "name": "_hash1",
          "type": "bytes32"
        },
        {
          "internalType": "bytes32",
          "name": "_hash2",
          "type": "bytes32"
        }
      ],
      "name": "setPublicParameters",
      "outputs": [],
      "stateMutability": "nonpayable",
      "type": "function"
    },
    {
      "inputs": [
        {
          "internalType": "address",
          "name": "_address",
          "type": "address"
        },
        {
          "internalType": "uint64",
          "name": "_instanceID",
          "type": "uint64"
        }
      ],
      "name": "getPublicParameters",
      "outputs": [
        {
          "internalType": "bytes",
          "name": "",
          "type": "bytes"
        }
      ],
      "stateMutability": "view",
      "type": "function",
      "constant": true
    },
    {
      "inputs": [
        {
          "internalType": "uint64",
          "name": "_instanceID",
          "type": "uint64"
        },
        {
          "internalType": "bytes32",
          "name": "_hash1",
          "type": "bytes32"
        },
        {
          "internalType": "bytes32",
          "name": "_hash2",
          "type": "bytes32"
        }
      ],
      "name": "setPublicKey",
      "outputs": [],
      "stateMutability": "nonpayable",
      "type": "function"
    },
    {
      "inputs": [
        {
          "internalType": "address",
          "name": "_address",
          "type": "address"
        },
        {
          "internalType": "uint64",
          "name": "_instanceID",
          "type": "uint64"
        }
      ],
      "name": "getPublicKey",
      "outputs": [
        {
          "internalType": "bytes",
          "name": "",
          "type": "bytes"
        }
      ],
      "stateMutability": "view",
      "type": "function",
      "constant": true
    },
    {
      "inputs": [
        {
          "internalType": "bytes32",
          "name": "_hash1",
          "type": "bytes32"
        },
        {
          "internalType": "bytes32",
          "name": "_hash2",
          "type": "bytes32"
        }
      ],
      "name": "setPublicKeyReaders",
      "outputs": [],
      "stateMutability": "nonpayable",
      "type": "function"
    },
    {
      "inputs": [
        {
          "internalType": "address",
          "name": "_address",
          "type": "address"
        }
      ],
      "name": "getPublicKeyReaders",
      "outputs": [
        {
          "internalType": "bytes",
          "name": "",
          "type": "bytes"
        }
      ],
      "stateMutability": "view",
      "type": "function",
      "constant": true
    },
    {
      "inputs": [
        {
          "internalType": "uint64",
          "name": "_messageID",
          "type": "uint64"
        },
        {
          "internalType": "bytes32",
          "name": "_hash1",
          "type": "bytes32"
        },
        {
          "internalType": "bytes32",
          "name": "_hash2",
          "type": "bytes32"
        }
      ],
      "name": "setIPFSLink",
      "outputs": [],
      "stateMutability": "nonpayable",
      "type": "function"
    },
    {
      "inputs": [
        {
          "internalType": "uint64",
          "name": "_messageID",
          "type": "uint64"
        }
      ],
      "name": "getIPFSLink",
      "outputs": [
        {
          "internalType": "address",
          "name": "",
          "type": "address"
        },
        {
          "internalType": "bytes",
          "name": "",
          "type": "bytes"
        }
      ],
      "stateMutability": "view",
      "type": "function",
      "constant": true
    },
    {
      "inputs": [
        {
          "internalType": "uint64",
          "name": "_instanceID",
          "type": "uint64"
        },
        {
          "internalType": "bytes32",
          "name": "_hash1",
          "type": "bytes32"
        },
        {
          "internalType": "bytes32",
          "name": "_hash2",
          "type": "bytes32"
        }
      ],
      "name": "setUserAttributes",
      "outputs": [],
      "stateMutability": "nonpayable",
      "type": "function"
    },
    {
      "inputs": [
        {
          "internalType": "uint64",
          "name": "_instanceID",
          "type": "uint64"
        }
      ],
      "name": "getUserAttributes",
      "outputs": [
        {
          "internalType": "bytes",
          "name": "",
          "type": "bytes"
        }
      ],
      "stateMutability": "view",
      "type": "function",
      "constant": true
    },
    {
      "inputs": [
        {
          "internalType": "uint64",
          "name": "_caseID",
          "type": "uint64"
        },
        {
          "internalType": "bytes32",
          "name": "_hash1",
          "type": "bytes32"
        },
        {
          "internalType": "bytes32",
          "name": "_hash2",
          "type": "bytes32"
        }
      ],
      "name": "setApplicationForm",
      "outputs": [],
      "stateMutability": "nonpayable",
      "type": "function"
    },
    {
      "inputs": [
        {
          "internalType": "uint64",
          "name": "_caseID",
          "type": "uint64"
        }
      ],
      "name": "getApplicationForm",
      "outputs": [
        {
          "internalType": "uint8",
          "name": "",
          "type": "uint8"
        },
        {
          "internalType": "address",
          "name": "",
          "type": "address"
        },
        {
          "internalType": "bytes",
          "name": "",
          "type": "bytes"
        }
      ],
      "stateMutability": "view",
      "type": "function",
      "constant": true
    },
    {
      "inputs": [
        {
          "internalType": "uint64",
          "name": "_caseID",
          "type": "uint64"
        },
        {
          "internalType": "bytes32",
          "name": "_hash1",
          "type": "bytes32"
        },
        {
          "internalType": "bytes32",
          "name": "_hash2",
          "type": "bytes32"
        }
      ],
      "name": "setGuaranteeConfirmation",
      "outputs": [],
      "stateMutability": "nonpayable",
      "type": "function"
    },
    {
      "inputs": [
        {
          "internalType": "uint64",
          "name": "_caseID",
          "type": "uint64"
        }
      ],
      "name": "getGuaranteeConfirmation",
      "outputs": [
        {
          "internalType": "uint8",
          "name": "",
          "type": "uint8"
        },
        {
          "internalType": "address",
          "name": "",
          "type": "address"
        },
        {
          "internalType": "bytes",
          "name": "",
          "type": "bytes"
        }
      ],
      "stateMutability": "view",
      "type": "function",
      "constant": true
    },
    {
      "inputs": [
        {
          "internalType": "uint64",
          "name": "_caseID",
          "type": "uint64"
        },
        {
          "internalType": "bytes32",
          "name": "_hash1",
          "type": "bytes32"
        },
        {
          "internalType": "bytes32",
          "name": "_hash2",
          "type": "bytes32"
        }
      ],
      "name": "setLoanRequest",
      "outputs": [],
      "stateMutability": "nonpayable",
      "type": "function"
    },
    {
      "inputs": [
        {
          "internalType": "uint64",
          "name": "_caseID",
          "type": "uint64"
        }
      ],
      "name": "getLoanRequest",
      "outputs": [
        {
          "internalType": "uint8",
          "name": "",
          "type": "uint8"
        },
        {
          "internalType": "address",
          "name": "",
          "type": "address"
        },
        {
          "internalType": "bytes",
          "name": "",
          "type": "bytes"
        }
      ],
      "stateMutability": "view",
      "type": "function",
      "constant": true
    },
    {
      "inputs": [
        {
          "internalType": "uint64",
          "name": "_caseID",
          "type": "uint64"
        },
        {
          "internalType": "bytes32",
          "name": "_hash1",
          "type": "bytes32"
        },
        {
          "internalType": "bytes32",
          "name": "_hash2",
          "type": "bytes32"
        }
      ],
      "name": "setGuaranteeClaim",
      "outputs": [],
      "stateMutability": "nonpayable",
      "type": "function"
    },
    {
      "inputs": [
        {
          "internalType": "uint64",
          "name": "_caseID",
          "type": "uint64"
        }
      ],
      "name": "getGuaranteeClaim",
      "outputs": [
        {
          "internalType": "uint8",
          "name": "",
          "type": "uint8"
        },
        {
          "internalType": "address",
          "name": "",
          "type": "address"
        },
        {
          "internalType": "bytes",
          "name": "",
          "type": "bytes"
        }
      ],
      "stateMutability": "view",
      "type": "function",
      "constant": true
    },
    {
      "inputs": [
        {
          "internalType": "uint64",
          "name": "_caseID",
          "type": "uint64"
        },
        {
          "internalType": "bytes32",
          "name": "_hash1",
          "type": "bytes32"
        },
        {
          "internalType": "bytes32",
          "name": "_hash2",
          "type": "bytes32"
        }
      ],
      "name": "setRejectPayment",
      "outputs": [],
      "stateMutability": "nonpayable",
      "type": "function"
    },
    {
      "inputs": [
        {
          "internalType": "uint64",
          "name": "_caseID",
          "type": "uint64"
        }
      ],
      "name": "getRejectPayment",
      "outputs": [
        {
          "internalType": "uint8",
          "name": "",
          "type": "uint8"
        },
        {
          "internalType": "address",
          "name": "",
          "type": "address"
        },
        {
          "internalType": "bytes",
          "name": "",
          "type": "bytes"
        }
      ],
      "stateMutability": "view",
      "type": "function",
      "constant": true
    },
    {
      "inputs": [
        {
          "internalType": "uint64",
          "name": "_caseID",
          "type": "uint64"
        },
        {
          "internalType": "bytes32",
          "name": "_hash1",
          "type": "bytes32"
        },
        {
          "internalType": "bytes32",
          "name": "_hash2",
          "type": "bytes32"
        }
      ],
      "name": "setAllowPayment",
      "outputs": [],
      "stateMutability": "nonpayable",
      "type": "function"
    },
    {
      "inputs": [
        {
          "internalType": "uint64",
          "name": "_caseID",
          "type": "uint64"
        }
      ],
      "name": "getAllowPayment",
      "outputs": [
        {
          "internalType": "uint8",
          "name": "",
          "type": "uint8"
        },
        {
          "internalType": "address",
          "name": "",
          "type": "address"
        },
        {
          "internalType": "bytes",
          "name": "",
          "type": "bytes"
        }
      ],
      "stateMutability": "view",
      "type": "function",
      "constant": true
    },
    {
      "inputs": [
        {
          "internalType": "uint64",
          "name": "_caseID",
          "type": "uint64"
        },
        {
          "internalType": "bytes32",
          "name": "_hash1",
          "type": "bytes32"
        },
        {
          "internalType": "bytes32",
          "name": "_hash2",
          "type": "bytes32"
        }
      ],
      "name": "setGuaranteeClaimGuarantor",
      "outputs": [],
      "stateMutability": "nonpayable",
      "type": "function"
    },
    {
      "inputs": [
        {
          "internalType": "uint64",
          "name": "_caseID",
          "type": "uint64"
        }
      ],
      "name": "getGuaranteeClaimGuarantor",
      "outputs": [
        {
          "internalType": "uint8",
          "name": "",
          "type": "uint8"
        },
        {
          "internalType": "address",
          "name": "",
          "type": "address"
        },
        {
          "internalType": "bytes",
          "name": "",
          "type": "bytes"
        }
      ],
      "stateMutability": "view",
      "type": "function",
      "constant": true
    }
  ],
  "bytecode": "0x608060405234801561001057600080fd5b50613995806100206000396000f3fe608060405234801561001057600080fd5b50600436106101da5760003560e01c8063621f2e6411610104578063c40dc8ed116100a2578063d17e48f211610071578063d17e48f2146105e2578063e57e4282146105fe578063fadef6071461061a578063ffff60f914610636576101da565b8063c40dc8ed1461055c578063ccdd111614610578578063ce16eefe14610594578063cf1fd0d1146105c6576101da565b806370012d0a116100de57806370012d0a146104ab5780638c842a93146104de5780638d30055a146105105780639ab28e2f14610540576101da565b8063621f2e641461041757806363c2c1121461044757806365e910b814610479576101da565b806325ba8d4c1161017c578063497dc1e41161014b578063497dc1e4146103925780634b6869ed146103ae57806359ec2bc1146103ca5780635d163535146103e6576101da565b806325ba8d4c146102e4578063279d1727146103165780633b8b760c146103325780633f30c4cd14610362576101da565b80630d18543d116101b85780630d18543d1461025e57806312c080421461027a5780631e27d9b11461029657806320359697146102b2576101da565b806305367d0a146101df57806305688eba146102105780630b701edb1461022c575b600080fd5b6101f960048036038101906101f4919061305f565b610666565b60405161020792919061315d565b60405180910390f35b61022a600480360381019061022591906131c3565b610784565b005b6102466004803603810190610241919061305f565b6107e7565b60405161025593929190613232565b60405180910390f35b61027860048036038101906102739190613270565b610948565b005b610294600480360381019061028f91906131c3565b6109da565b005b6102b060048036038101906102ab91906131c3565b610ab5565b005b6102cc60048036038101906102c7919061305f565b610c42565b6040516102db93929190613232565b60405180910390f35b6102fe60048036038101906102f9919061305f565b610da3565b60405161030d93929190613232565b60405180910390f35b610330600480360381019061032b91906131c3565b610f04565b005b61034c600480360381019061034791906132dc565b610fd0565b604051610359919061331c565b60405180910390f35b61037c600480360381019061037791906132dc565b611114565b604051610389919061331c565b60405180910390f35b6103ac60048036038101906103a7919061333e565b611258565b005b6103c860048036038101906103c391906131c3565b6114e9565b005b6103e460048036038101906103df91906131c3565b6115c6565b005b61040060048036038101906103fb91906132dc565b611753565b60405161040e9291906133e0565b60405180910390f35b610431600480360381019061042c91906132dc565b6119d5565b60405161043e919061331c565b60405180910390f35b610461600480360381019061045c919061305f565b611b17565b60405161047093929190613232565b60405180910390f35b610493600480360381019061048e919061305f565b611c78565b6040516104a293929190613232565b60405180910390f35b6104c560048036038101906104c091906132dc565b611dd9565b6040516104d59493929190613426565b60405180910390f35b6104f860048036038101906104f3919061305f565b612141565b60405161050793929190613232565b60405180910390f35b61052a60048036038101906105259190613479565b6122a2565b604051610537919061331c565b60405180910390f35b61055a600480360381019061055591906131c3565b61239b565b005b610576600480360381019061057191906134a6565b612528565b005b610592600480360381019061058d91906131c3565b6126df565b005b6105ae60048036038101906105a9919061305f565b61286c565b6040516105bd93929190613232565b60405180910390f35b6105e060048036038101906105db91906131c3565b6129cd565b005b6105fc60048036038101906105f791906131c3565b612aaa565b005b610618600480360381019061061391906131c3565b612c37565b005b610634600480360381019061062f91906131c3565b612dc4565b005b610650600480360381019061064b919061305f565b612f51565b60405161065d919061331c565b60405180910390f35b600060606000600860008567ffffffffffffffff1667ffffffffffffffff16815260200190815260200160002060000160009054906101000a900473ffffffffffffffffffffffffffffffffffffffff1690506000600860008667ffffffffffffffff1667ffffffffffffffff1681526020019081526020016000206001015490506000600860008767ffffffffffffffff1667ffffffffffffffff1681526020019081526020016000206002015490506000604067ffffffffffffffff81111561073457610733613521565b5b6040519080825280601f01601f1916602001820160405280156107665781602001600182028036833780820191505090505b50905082602082015281604082015283819550955050505050915091565b81600960008567ffffffffffffffff1667ffffffffffffffff1681526020019081526020016000206000018190555080600960008567ffffffffffffffff1667ffffffffffffffff16815260200190815260200160002060010181905550505050565b60008060606000600b60008667ffffffffffffffff1667ffffffffffffffff16815260200190815260200160002060000160009054906101000a900460ff1690506000600b60008767ffffffffffffffff1667ffffffffffffffff16815260200190815260200160002060000160019054906101000a900473ffffffffffffffffffffffffffffffffffffffff1690506000600b60008867ffffffffffffffff1667ffffffffffffffff1681526020019081526020016000206001015490506000600b60008967ffffffffffffffff1667ffffffffffffffff1681526020019081526020016000206002015490506000604067ffffffffffffffff8111156108f2576108f1613521565b5b6040519080825280601f01601f1916602001820160405280156109245781602001600182028036833780820191505090505b50905082602082015281604082015284848297509750975050505050509193909250565b81600760003373ffffffffffffffffffffffffffffffffffffffff1673ffffffffffffffffffffffffffffffffffffffff1681526020019081526020016000206000018190555080600760003373ffffffffffffffffffffffffffffffffffffffff1673ffffffffffffffffffffffffffffffffffffffff168152602001908152602001600020600101819055505050565b816000808567ffffffffffffffff1667ffffffffffffffff16815260200190815260200160002060003373ffffffffffffffffffffffffffffffffffffffff1673ffffffffffffffffffffffffffffffffffffffff16815260200190815260200160002060000181905550806000808567ffffffffffffffff1667ffffffffffffffff16815260200190815260200160002060003373ffffffffffffffffffffffffffffffffffffffff1673ffffffffffffffffffffffffffffffffffffffff16815260200190815260200160002060010181905550505050565b6000600a60008567ffffffffffffffff1667ffffffffffffffff16815260200190815260200160002060000160009054906101000a900460ff1660ff1614610b32576040517f08c379a0000000000000000000000000000000000000000000000000000000008152600401610b29906135d3565b60405180910390fd5b6001600a60008567ffffffffffffffff1667ffffffffffffffff16815260200190815260200160002060000160006101000a81548160ff021916908360ff16021790555033600a60008567ffffffffffffffff1667ffffffffffffffff16815260200190815260200160002060000160016101000a81548173ffffffffffffffffffffffffffffffffffffffff021916908373ffffffffffffffffffffffffffffffffffffffff16021790555081600a60008567ffffffffffffffff1667ffffffffffffffff1681526020019081526020016000206003018190555080600a60008567ffffffffffffffff1667ffffffffffffffff16815260200190815260200160002060040181905550505050565b60008060606000600a60008667ffffffffffffffff1667ffffffffffffffff16815260200190815260200160002060000160009054906101000a900460ff1690506000600a60008767ffffffffffffffff1667ffffffffffffffff16815260200190815260200160002060020160009054906101000a900473ffffffffffffffffffffffffffffffffffffffff1690506000600a60008867ffffffffffffffff1667ffffffffffffffff1681526020019081526020016000206007015490506000600a60008967ffffffffffffffff1667ffffffffffffffff1681526020019081526020016000206008015490506000604067ffffffffffffffff811115610d4d57610d4c613521565b5b6040519080825280601f01601f191660200182016040528015610d7f5781602001600182028036833780820191505090505b50905082602082015281604082015284848297509750975050505050509193909250565b60008060606000600a60008667ffffffffffffffff1667ffffffffffffffff16815260200190815260200160002060000160009054906101000a900460ff1690506000600a60008767ffffffffffffffff1667ffffffffffffffff16815260200190815260200160002060010160009054906101000a900473ffffffffffffffffffffffffffffffffffffffff1690506000600a60008867ffffffffffffffff1667ffffffffffffffff1681526020019081526020016000206005015490506000600a60008967ffffffffffffffff1667ffffffffffffffff1681526020019081526020016000206006015490506000604067ffffffffffffffff811115610eae57610ead613521565b5b6040519080825280601f01601f191660200182016040528015610ee05781602001600182028036833780820191505090505b50905082602082015281604082015284848297509750975050505050509193909250565b33600860008567ffffffffffffffff1667ffffffffffffffff16815260200190815260200160002060000160006101000a81548173ffffffffffffffffffffffffffffffffffffffff021916908373ffffffffffffffffffffffffffffffffffffffff16021790555081600860008567ffffffffffffffff1667ffffffffffffffff1681526020019081526020016000206001018190555080600860008567ffffffffffffffff1667ffffffffffffffff16815260200190815260200160002060020181905550505050565b60606000600660008467ffffffffffffffff1667ffffffffffffffff16815260200190815260200160002060008573ffffffffffffffffffffffffffffffffffffffff1673ffffffffffffffffffffffffffffffffffffffff1681526020019081526020016000206000015490506000600660008567ffffffffffffffff1667ffffffffffffffff16815260200190815260200160002060008673ffffffffffffffffffffffffffffffffffffffff1673ffffffffffffffffffffffffffffffffffffffff1681526020019081526020016000206001015490506000604067ffffffffffffffff8111156110c7576110c6613521565b5b6040519080825280601f01601f1916602001820160405280156110f95781602001600182028036833780820191505090505b50905082602082015281604082015280935050505092915050565b60606000600560008467ffffffffffffffff1667ffffffffffffffff16815260200190815260200160002060008573ffffffffffffffffffffffffffffffffffffffff1673ffffffffffffffffffffffffffffffffffffffff1681526020019081526020016000206000015490506000600560008567ffffffffffffffff1667ffffffffffffffff16815260200190815260200160002060008673ffffffffffffffffffffffffffffffffffffffff1673ffffffffffffffffffffffffffffffffffffffff1681526020019081526020016000206001015490506000604067ffffffffffffffff81111561120b5761120a613521565b5b6040519080825280601f01601f19166020018201604052801561123d5781602001600182028036833780820191505090505b50905082602082015281604082015280935050505092915050565b85600360008967ffffffffffffffff1667ffffffffffffffff16815260200190815260200160002060003373ffffffffffffffffffffffffffffffffffffffff1673ffffffffffffffffffffffffffffffffffffffff1681526020019081526020016000206000018190555084600360008967ffffffffffffffff1667ffffffffffffffff16815260200190815260200160002060003373ffffffffffffffffffffffffffffffffffffffff1673ffffffffffffffffffffffffffffffffffffffff1681526020019081526020016000206001018190555083600360008967ffffffffffffffff1667ffffffffffffffff16815260200190815260200160002060003373ffffffffffffffffffffffffffffffffffffffff1673ffffffffffffffffffffffffffffffffffffffff1681526020019081526020016000206002018190555082600460008967ffffffffffffffff1667ffffffffffffffff16815260200190815260200160002060003373ffffffffffffffffffffffffffffffffffffffff1673ffffffffffffffffffffffffffffffffffffffff1681526020019081526020016000206000018190555081600460008967ffffffffffffffff1667ffffffffffffffff16815260200190815260200160002060003373ffffffffffffffffffffffffffffffffffffffff1673ffffffffffffffffffffffffffffffffffffffff1681526020019081526020016000206001018190555080600460008967ffffffffffffffff1667ffffffffffffffff16815260200190815260200160002060003373ffffffffffffffffffffffffffffffffffffffff1673ffffffffffffffffffffffffffffffffffffffff1681526020019081526020016000206002018190555050505050505050565b81600660008567ffffffffffffffff1667ffffffffffffffff16815260200190815260200160002060003373ffffffffffffffffffffffffffffffffffffffff1673ffffffffffffffffffffffffffffffffffffffff1681526020019081526020016000206000018190555080600660008567ffffffffffffffff1667ffffffffffffffff16815260200190815260200160002060003373ffffffffffffffffffffffffffffffffffffffff1673ffffffffffffffffffffffffffffffffffffffff16815260200190815260200160002060010181905550505050565b6001600a60008567ffffffffffffffff1667ffffffffffffffff16815260200190815260200160002060000160009054906101000a900460ff1660ff1614611643576040517f08c379a000000000000000000000000000000000000000000000000000000000815260040161163a90613665565b60405180910390fd5b6002600a60008567ffffffffffffffff1667ffffffffffffffff16815260200190815260200160002060000160006101000a81548160ff021916908360ff16021790555033600a60008567ffffffffffffffff1667ffffffffffffffff16815260200190815260200160002060010160006101000a81548173ffffffffffffffffffffffffffffffffffffffff021916908373ffffffffffffffffffffffffffffffffffffffff16021790555081600a60008567ffffffffffffffff1667ffffffffffffffff1681526020019081526020016000206005018190555080600a60008567ffffffffffffffff1667ffffffffffffffff16815260200190815260200160002060060181905550505050565b6060806000600160008567ffffffffffffffff1667ffffffffffffffff16815260200190815260200160002060008673ffffffffffffffffffffffffffffffffffffffff1673ffffffffffffffffffffffffffffffffffffffff1681526020019081526020016000206000015490506000600160008667ffffffffffffffff1667ffffffffffffffff16815260200190815260200160002060008773ffffffffffffffffffffffffffffffffffffffff1673ffffffffffffffffffffffffffffffffffffffff1681526020019081526020016000206001015490506000600260008767ffffffffffffffff1667ffffffffffffffff16815260200190815260200160002060008873ffffffffffffffffffffffffffffffffffffffff1673ffffffffffffffffffffffffffffffffffffffff1681526020019081526020016000206000015490506000600260008867ffffffffffffffff1667ffffffffffffffff16815260200190815260200160002060008973ffffffffffffffffffffffffffffffffffffffff1673ffffffffffffffffffffffffffffffffffffffff1681526020019081526020016000206001015490506000604067ffffffffffffffff81111561192357611922613521565b5b6040519080825280601f01601f1916602001820160405280156119555781602001600182028036833780820191505090505b5090508460208201528360408201526000604067ffffffffffffffff81111561198157611980613521565b5b6040519080825280601f01601f1916602001820160405280156119b35781602001600182028036833780820191505090505b5090508360208201528260408201528181975097505050505050509250929050565b606060008060008467ffffffffffffffff1667ffffffffffffffff16815260200190815260200160002060008573ffffffffffffffffffffffffffffffffffffffff1673ffffffffffffffffffffffffffffffffffffffff16815260200190815260200160002060000154905060008060008567ffffffffffffffff1667ffffffffffffffff16815260200190815260200160002060008673ffffffffffffffffffffffffffffffffffffffff1673ffffffffffffffffffffffffffffffffffffffff1681526020019081526020016000206001015490506000604067ffffffffffffffff811115611aca57611ac9613521565b5b6040519080825280601f01601f191660200182016040528015611afc5781602001600182028036833780820191505090505b50905082602082015281604082015280935050505092915050565b60008060606000600b60008667ffffffffffffffff1667ffffffffffffffff16815260200190815260200160002060000160009054906101000a900460ff1690506000600b60008767ffffffffffffffff1667ffffffffffffffff16815260200190815260200160002060000160019054906101000a900473ffffffffffffffffffffffffffffffffffffffff1690506000600b60008867ffffffffffffffff1667ffffffffffffffff1681526020019081526020016000206007015490506000600b60008967ffffffffffffffff1667ffffffffffffffff1681526020019081526020016000206008015490506000604067ffffffffffffffff811115611c2257611c21613521565b5b6040519080825280601f01601f191660200182016040528015611c545781602001600182028036833780820191505090505b50905082602082015281604082015284848297509750975050505050509193909250565b60008060606000600b60008667ffffffffffffffff1667ffffffffffffffff16815260200190815260200160002060000160009054906101000a900460ff1690506000600b60008767ffffffffffffffff1667ffffffffffffffff16815260200190815260200160002060000160019054906101000a900473ffffffffffffffffffffffffffffffffffffffff1690506000600b60008867ffffffffffffffff1667ffffffffffffffff1681526020019081526020016000206005015490506000600b60008967ffffffffffffffff1667ffffffffffffffff1681526020019081526020016000206006015490506000604067ffffffffffffffff811115611d8357611d82613521565b5b6040519080825280601f01601f191660200182016040528015611db55781602001600182028036833780820191505090505b50905082602082015281604082015284848297509750975050505050509193909250565b606060006060600080600360008767ffffffffffffffff1667ffffffffffffffff16815260200190815260200160002060008873ffffffffffffffffffffffffffffffffffffffff1673ffffffffffffffffffffffffffffffffffffffff1681526020019081526020016000206000015490506000600360008867ffffffffffffffff1667ffffffffffffffff16815260200190815260200160002060008973ffffffffffffffffffffffffffffffffffffffff1673ffffffffffffffffffffffffffffffffffffffff1681526020019081526020016000206001015490506000600360008967ffffffffffffffff1667ffffffffffffffff16815260200190815260200160002060008a73ffffffffffffffffffffffffffffffffffffffff1673ffffffffffffffffffffffffffffffffffffffff1681526020019081526020016000206002015490506000600460008a67ffffffffffffffff1667ffffffffffffffff16815260200190815260200160002060008b73ffffffffffffffffffffffffffffffffffffffff1673ffffffffffffffffffffffffffffffffffffffff1681526020019081526020016000206000015490506000600460008b67ffffffffffffffff1667ffffffffffffffff16815260200190815260200160002060008c73ffffffffffffffffffffffffffffffffffffffff1673ffffffffffffffffffffffffffffffffffffffff1681526020019081526020016000206001015490506000600460008c67ffffffffffffffff1667ffffffffffffffff16815260200190815260200160002060008d73ffffffffffffffffffffffffffffffffffffffff1673ffffffffffffffffffffffffffffffffffffffff1681526020019081526020016000206002015490506000604067ffffffffffffffff81111561208557612084613521565b5b6040519080825280601f01601f1916602001820160405280156120b75781602001600182028036833780820191505090505b5090508660208201528560408201526000604067ffffffffffffffff8111156120e3576120e2613521565b5b6040519080825280601f01601f1916602001820160405280156121155781602001600182028036833780820191505090505b509050846020820152836040820152818682859b509b509b509b50505050505050505092959194509250565b60008060606000600b60008667ffffffffffffffff1667ffffffffffffffff16815260200190815260200160002060000160009054906101000a900460ff1690506000600b60008767ffffffffffffffff1667ffffffffffffffff16815260200190815260200160002060000160019054906101000a900473ffffffffffffffffffffffffffffffffffffffff1690506000600b60008867ffffffffffffffff1667ffffffffffffffff1681526020019081526020016000206003015490506000600b60008967ffffffffffffffff1667ffffffffffffffff1681526020019081526020016000206003015490506000604067ffffffffffffffff81111561224c5761224b613521565b5b6040519080825280601f01601f19166020018201604052801561227e5781602001600182028036833780820191505090505b50905082602082015281604082015284848297509750975050505050509193909250565b60606000600760008473ffffffffffffffffffffffffffffffffffffffff1673ffffffffffffffffffffffffffffffffffffffff1681526020019081526020016000206000015490506000600760008573ffffffffffffffffffffffffffffffffffffffff1673ffffffffffffffffffffffffffffffffffffffff1681526020019081526020016000206001015490506000604067ffffffffffffffff81111561234f5761234e613521565b5b6040519080825280601f01601f1916602001820160405280156123815781602001600182028036833780820191505090505b509050826020820152816040820152809350505050919050565b6002600a60008567ffffffffffffffff1667ffffffffffffffff16815260200190815260200160002060000160009054906101000a900460ff1660ff1614612418576040517f08c379a000000000000000000000000000000000000000000000000000000000815260040161240f906136f7565b60405180910390fd5b6003600a60008567ffffffffffffffff1667ffffffffffffffff16815260200190815260200160002060000160006101000a81548160ff021916908360ff16021790555033600a60008567ffffffffffffffff1667ffffffffffffffff16815260200190815260200160002060020160006101000a81548173ffffffffffffffffffffffffffffffffffffffff021916908373ffffffffffffffffffffffffffffffffffffffff16021790555081600a60008567ffffffffffffffff1667ffffffffffffffff1681526020019081526020016000206007018190555080600a60008567ffffffffffffffff1667ffffffffffffffff16815260200190815260200160002060080181905550505050565b83600160008767ffffffffffffffff1667ffffffffffffffff16815260200190815260200160002060003373ffffffffffffffffffffffffffffffffffffffff1673ffffffffffffffffffffffffffffffffffffffff1681526020019081526020016000206000018190555082600160008767ffffffffffffffff1667ffffffffffffffff16815260200190815260200160002060003373ffffffffffffffffffffffffffffffffffffffff1673ffffffffffffffffffffffffffffffffffffffff1681526020019081526020016000206001018190555081600260008767ffffffffffffffff1667ffffffffffffffff16815260200190815260200160002060003373ffffffffffffffffffffffffffffffffffffffff1673ffffffffffffffffffffffffffffffffffffffff1681526020019081526020016000206000018190555080600260008767ffffffffffffffff1667ffffffffffffffff16815260200190815260200160002060003373ffffffffffffffffffffffffffffffffffffffff1673ffffffffffffffffffffffffffffffffffffffff168152602001908152602001600020600101819055505050505050565b6001600b60008567ffffffffffffffff1667ffffffffffffffff16815260200190815260200160002060000160009054906101000a900460ff1660ff161461275c576040517f08c379a000000000000000000000000000000000000000000000000000000000815260040161275390613789565b60405180910390fd5b6002600b60008567ffffffffffffffff1667ffffffffffffffff16815260200190815260200160002060000160006101000a81548160ff021916908360ff16021790555033600b60008567ffffffffffffffff1667ffffffffffffffff16815260200190815260200160002060000160016101000a81548173ffffffffffffffffffffffffffffffffffffffff021916908373ffffffffffffffffffffffffffffffffffffffff16021790555081600b60008567ffffffffffffffff1667ffffffffffffffff1681526020019081526020016000206005018190555080600b60008567ffffffffffffffff1667ffffffffffffffff16815260200190815260200160002060060181905550505050565b60008060606000600a60008667ffffffffffffffff1667ffffffffffffffff16815260200190815260200160002060000160009054906101000a900460ff1690506000600a60008767ffffffffffffffff1667ffffffffffffffff16815260200190815260200160002060000160019054906101000a900473ffffffffffffffffffffffffffffffffffffffff1690506000600a60008867ffffffffffffffff1667ffffffffffffffff1681526020019081526020016000206003015490506000600a60008967ffffffffffffffff1667ffffffffffffffff1681526020019081526020016000206004015490506000604067ffffffffffffffff81111561297757612976613521565b5b6040519080825280601f01601f1916602001820160405280156129a95781602001600182028036833780820191505090505b50905082602082015281604082015284848297509750975050505050509193909250565b81600560008567ffffffffffffffff1667ffffffffffffffff16815260200190815260200160002060003373ffffffffffffffffffffffffffffffffffffffff1673ffffffffffffffffffffffffffffffffffffffff1681526020019081526020016000206000018190555080600560008567ffffffffffffffff1667ffffffffffffffff16815260200190815260200160002060003373ffffffffffffffffffffffffffffffffffffffff1673ffffffffffffffffffffffffffffffffffffffff16815260200190815260200160002060010181905550505050565b6001600b60008567ffffffffffffffff1667ffffffffffffffff16815260200190815260200160002060000160009054906101000a900460ff1660ff1614612b27576040517f08c379a0000000000000000000000000000000000000000000000000000000008152600401612b1e9061381b565b60405180910390fd5b6004600b60008567ffffffffffffffff1667ffffffffffffffff16815260200190815260200160002060000160006101000a81548160ff021916908360ff16021790555033600b60008567ffffffffffffffff1667ffffffffffffffff16815260200190815260200160002060000160016101000a81548173ffffffffffffffffffffffffffffffffffffffff021916908373ffffffffffffffffffffffffffffffffffffffff16021790555081600b60008567ffffffffffffffff1667ffffffffffffffff1681526020019081526020016000206003018190555080600b60008567ffffffffffffffff1667ffffffffffffffff16815260200190815260200160002060040181905550505050565b6000600b60008567ffffffffffffffff1667ffffffffffffffff16815260200190815260200160002060000160009054906101000a900460ff1660ff1614612cb4576040517f08c379a0000000000000000000000000000000000000000000000000000000008152600401612cab906138ad565b60405180910390fd5b6001600b60008567ffffffffffffffff1667ffffffffffffffff16815260200190815260200160002060000160006101000a81548160ff021916908360ff16021790555033600b60008567ffffffffffffffff1667ffffffffffffffff16815260200190815260200160002060000160016101000a81548173ffffffffffffffffffffffffffffffffffffffff021916908373ffffffffffffffffffffffffffffffffffffffff16021790555081600b60008567ffffffffffffffff1667ffffffffffffffff1681526020019081526020016000206001018190555080600b60008567ffffffffffffffff1667ffffffffffffffff16815260200190815260200160002060020181905550505050565b6002600b60008567ffffffffffffffff1667ffffffffffffffff16815260200190815260200160002060000160009054906101000a900460ff1660ff1614612e41576040517f08c379a0000000000000000000000000000000000000000000000000000000008152600401612e389061393f565b60405180910390fd5b6003600b60008567ffffffffffffffff1667ffffffffffffffff16815260200190815260200160002060000160006101000a81548160ff021916908360ff16021790555033600b60008567ffffffffffffffff1667ffffffffffffffff16815260200190815260200160002060000160016101000a81548173ffffffffffffffffffffffffffffffffffffffff021916908373ffffffffffffffffffffffffffffffffffffffff16021790555081600b60008567ffffffffffffffff1667ffffffffffffffff1681526020019081526020016000206007018190555080600b60008567ffffffffffffffff1667ffffffffffffffff16815260200190815260200160002060080181905550505050565b60606000600960008467ffffffffffffffff1667ffffffffffffffff1681526020019081526020016000206000015490506000600960008567ffffffffffffffff1667ffffffffffffffff1681526020019081526020016000206001015490506000604067ffffffffffffffff811115612fce57612fcd613521565b5b6040519080825280601f01601f1916602001820160405280156130005781602001600182028036833780820191505090505b509050826020820152816040820152809350505050919050565b600080fd5b600067ffffffffffffffff82169050919050565b61303c8161301f565b811461304757600080fd5b50565b60008135905061305981613033565b92915050565b6000602082840312156130755761307461301a565b5b60006130838482850161304a565b91505092915050565b600073ffffffffffffffffffffffffffffffffffffffff82169050919050565b60006130b78261308c565b9050919050565b6130c7816130ac565b82525050565b600081519050919050565b600082825260208201905092915050565b60005b838110156131075780820151818401526020810190506130ec565b60008484015250505050565b6000601f19601f8301169050919050565b600061312f826130cd565b61313981856130d8565b93506131498185602086016130e9565b61315281613113565b840191505092915050565b600060408201905061317260008301856130be565b81810360208301526131848184613124565b90509392505050565b6000819050919050565b6131a08161318d565b81146131ab57600080fd5b50565b6000813590506131bd81613197565b92915050565b6000806000606084860312156131dc576131db61301a565b5b60006131ea8682870161304a565b93505060206131fb868287016131ae565b925050604061320c868287016131ae565b9150509250925092565b600060ff82169050919050565b61322c81613216565b82525050565b60006060820190506132476000830186613223565b61325460208301856130be565b81810360408301526132668184613124565b9050949350505050565b600080604083850312156132875761328661301a565b5b6000613295858286016131ae565b92505060206132a6858286016131ae565b9150509250929050565b6132b9816130ac565b81146132c457600080fd5b50565b6000813590506132d6816132b0565b92915050565b600080604083850312156132f3576132f261301a565b5b6000613301858286016132c7565b92505060206133128582860161304a565b9150509250929050565b600060208201905081810360008301526133368184613124565b905092915050565b600080600080600080600060e0888a03121561335d5761335c61301a565b5b600061336b8a828b0161304a565b975050602061337c8a828b016131ae565b965050604061338d8a828b016131ae565b955050606061339e8a828b016131ae565b94505060806133af8a828b016131ae565b93505060a06133c08a828b016131ae565b92505060c06133d18a828b016131ae565b91505092959891949750929550565b600060408201905081810360008301526133fa8185613124565b9050818103602083015261340e8184613124565b90509392505050565b6134208161318d565b82525050565b600060808201905081810360008301526134408187613124565b905061344f6020830186613417565b81810360408301526134618185613124565b90506134706060830184613417565b95945050505050565b60006020828403121561348f5761348e61301a565b5b600061349d848285016132c7565b91505092915050565b600080600080600060a086880312156134c2576134c161301a565b5b60006134d08882890161304a565b95505060206134e1888289016131ae565b94505060406134f2888289016131ae565b9350506060613503888289016131ae565b9250506080613514888289016131ae565b9150509295509295909350565b7f4e487b7100000000000000000000000000000000000000000000000000000000600052604160045260246000fd5b600082825260208201905092915050565b7f537461747573206d757374206265203020746f20736574206170706c6963617460008201527f696f6e20666f726d000000000000000000000000000000000000000000000000602082015250565b60006135bd602883613550565b91506135c882613561565b604082019050919050565b600060208201905081810360008301526135ec816135b0565b9050919050565b7f537461747573206d757374206265203120746f207365742067756172616e746560008201527f6520636f6e6669726d6174696f6e000000000000000000000000000000000000602082015250565b600061364f602e83613550565b915061365a826135f3565b604082019050919050565b6000602082019050818103600083015261367e81613642565b9050919050565b7f537461747573206d757374206265203220746f20736574206c6f616e2072657160008201527f7565737400000000000000000000000000000000000000000000000000000000602082015250565b60006136e1602483613550565b91506136ec82613685565b604082019050919050565b60006020820190508181036000830152613710816136d4565b9050919050565b7f537461747573206d757374206265203120746f20616c6c6f77207061796d656e60008201527f7400000000000000000000000000000000000000000000000000000000000000602082015250565b6000613773602183613550565b915061377e82613717565b604082019050919050565b600060208201905081810360008301526137a281613766565b9050919050565b7f537461747573206d757374206265203120746f2072656a656374207061796d6560008201527f6e74000000000000000000000000000000000000000000000000000000000000602082015250565b6000613805602283613550565b9150613810826137a9565b604082019050919050565b60006020820190508181036000830152613834816137f8565b9050919050565b7f537461747573206d757374206265203020746f207365742067756172616e746560008201527f6520636c61696d00000000000000000000000000000000000000000000000000602082015250565b6000613897602783613550565b91506138a28261383b565b604082019050919050565b600060208201905081810360008301526138c68161388a565b9050919050565b7f537461747573206d757374206265203220746f207365742067756172616e746f60008201527f7220636c61696d00000000000000000000000000000000000000000000000000602082015250565b6000613929602783613550565b9150613934826138cd565b604082019050919050565b600060208201905081810360008301526139588161391c565b905091905056fea26469706673582212208f00cf86611fb22ab9349787f6667af616f6e043e5f24c42a57a5262bc3fff7464736f6c63430008110033",
  "immutableReferences": {},
  "source": "// SPDX-License-Identifier: CC-BY-SA-4.0\npragma solidity >= 0.5.0 < 0.9.0;\n\ncontract MARTSIAEth {\n\n  struct authoritiesNames {\n    bytes32 hashPart1;\n    bytes32 hashPart2;\n  }\n  mapping (uint64 => mapping (address => authoritiesNames)) authoritiesName;\n\n  struct firstElementHashed {\n    bytes32 hashPart1;\n    bytes32 hashPart2;\n  }\n  mapping (uint64 => mapping (address => firstElementHashed)) firstGHashed;\n\n  struct secondElementHashed {\n    bytes32 hashPart1;\n    bytes32 hashPart2;\n  }\n  mapping (uint64 => mapping (address => secondElementHashed)) secondGHashed;\n\n  struct firstElement {\n    bytes32 hashPart1;\n    bytes32 hashPart2;\n    bytes32 hashPart3;\n  }\n  mapping (uint64 => mapping (address => firstElement)) firstG;\n\n  struct secondElement {\n    bytes32 hashPart1;\n    bytes32 hashPart2;\n    bytes32 hashPart3;\n  }\n  mapping (uint64 => mapping (address => secondElement)) secondG;\n\n  struct publicParameters {\n    bytes32 hashPart1;\n    bytes32 hashPart2;\n  }\n  mapping (uint64 => mapping (address => publicParameters)) parameters;\n\n  struct publicKey {\n    bytes32 hashPart1;\n    bytes32 hashPart2;\n  }\n  mapping (uint64 => mapping (address =>  publicKey)) publicKeys;\n\n  struct publicKeyReaders {\n    bytes32 hashPart1;\n    bytes32 hashPart2;\n  }\n  mapping (address =>  publicKeyReaders) publicKeysReaders;\n\n  struct IPFSCiphertext {\n    address sender;\n    bytes32 hashPart1;\n    bytes32 hashPart2;\n  }\n  mapping (uint64 => IPFSCiphertext) allLinks;\n\n  struct userAttributes {\n    bytes32 hashPart1;\n    bytes32 hashPart2;\n  }\n  mapping (uint64 => userAttributes) allUsers;\n\n  struct loanApplication {\n    uint8 status;\n    address senderapplicationForm;\n    address senderguaranteeConfirmation;\n    address senderloanRequest;\n    bytes32 applicationFormDocument1;\n    bytes32 applicationFormDocument2;\n    bytes32 guaranteeConfirmationDocument1;\n    bytes32 guaranteeConfirmationDocument2;\n    bytes32 loanRequestDocument1;\n    bytes32 loanRequestDocument2;\n  }\n  mapping (uint64 => loanApplication) loanApplications;\n\n  struct guaranteePayment {\n    uint8 status;\n    address sender;\n    bytes32 guaranteeClaimDocument1;\n    bytes32 guaranteeClaimDocument2;\n    bytes32 rejectPaymentDocument1;\n    bytes32 rejectPaymentDocument2;\n    bytes32 allowPaymentDocument1;\n    bytes32 allowPaymentDocument2;\n    bytes32 guaranteeClaimGuarantorDocument1;\n    bytes32 guaranteeClaimGuarantorDocument2;\n  }\n  mapping (uint64 => guaranteePayment) guaranteePayments;\n\n  function setAuthoritiesNames(uint64 _instanceID, bytes32 _hash1, bytes32 _hash2) public {\n    authoritiesName[_instanceID][msg.sender].hashPart1 = _hash1;\n    authoritiesName[_instanceID][msg.sender].hashPart2 = _hash2;\n  }\n\n  function getAuthoritiesNames(address _address, uint64 _instanceID) public view returns (bytes memory) {\n    bytes32 p1 = authoritiesName[_instanceID][_address].hashPart1;\n    bytes32 p2 = authoritiesName[_instanceID][_address].hashPart2;\n    bytes memory joined = new bytes(64);\n    assembly {\n      mstore(add(joined, 32), p1)\n      mstore(add(joined, 64), p2)\n    }\n    return joined;\n  }\n\n  function setElementHashed(uint64 _instanceID, bytes32 _hash1, bytes32 _hash2, bytes32 _hash3, bytes32 _hash4) public {\n    firstGHashed[_instanceID][msg.sender].hashPart1 = _hash1;\n    firstGHashed[_instanceID][msg.sender].hashPart2 = _hash2;\n    secondGHashed[_instanceID][msg.sender].hashPart1 = _hash3;\n    secondGHashed[_instanceID][msg.sender].hashPart2 = _hash4;\n  }\n\n  function getElementHashed(address _address, uint64 _instanceID) public view returns (bytes memory, bytes memory) {\n    bytes32 p1 = firstGHashed[_instanceID][_address].hashPart1;\n    bytes32 p2 = firstGHashed[_instanceID][_address].hashPart2;\n    bytes32 p3 = secondGHashed[_instanceID][_address].hashPart1;\n    bytes32 p4 = secondGHashed[_instanceID][_address].hashPart2;\n    bytes memory joined = new bytes(64);\n    assembly {\n      mstore(add(joined, 32), p1)\n      mstore(add(joined, 64), p2)\n    }\n    bytes memory joinedsec = new bytes(64);\n    assembly {\n      mstore(add(joinedsec, 32), p3)\n      mstore(add(joinedsec, 64), p4)\n    }\n    return (joined, joinedsec);\n  }\n\n  function setElement(uint64 _instanceID, bytes32 _hash1, bytes32 _hash2, bytes32 _hash3, bytes32 _hash4, bytes32 _hash5, bytes32 _hash6) public {\n    firstG[_instanceID][msg.sender].hashPart1 = _hash1;\n    firstG[_instanceID][msg.sender].hashPart2 = _hash2;\n    firstG[_instanceID][msg.sender].hashPart3 = _hash3;\n    secondG[_instanceID][msg.sender].hashPart1 = _hash4;\n    secondG[_instanceID][msg.sender].hashPart2 = _hash5;\n    secondG[_instanceID][msg.sender].hashPart3 = _hash6;\n  }\n\n  function getElement(address _address, uint64 _instanceID) public view returns (bytes memory, bytes32, bytes memory, bytes32) {\n    bytes32 p1 = firstG[_instanceID][_address].hashPart1;\n    bytes32 p2 = firstG[_instanceID][_address].hashPart2;\n    bytes32 p3 = firstG[_instanceID][_address].hashPart3;\n    bytes32 p4 = secondG[_instanceID][_address].hashPart1;\n    bytes32 p5 = secondG[_instanceID][_address].hashPart2;\n    bytes32 p6 = secondG[_instanceID][_address].hashPart3;\n    bytes memory joined = new bytes(64);\n    assembly {\n      mstore(add(joined, 32), p1)\n      mstore(add(joined, 64), p2)\n    }\n    bytes memory joinedsec = new bytes(64);\n    assembly {\n      mstore(add(joinedsec, 32), p4)\n      mstore(add(joinedsec, 64), p5)\n    }\n\n    return (joined, p3, joinedsec, p6);\n  }\n\n  function setPublicParameters(uint64 _instanceID, bytes32 _hash1, bytes32 _hash2) public {\n    parameters[_instanceID][msg.sender].hashPart1 = _hash1;\n    parameters[_instanceID][msg.sender].hashPart2 = _hash2;\n  }\n\n  function getPublicParameters(address _address, uint64 _instanceID) public view returns (bytes memory) {\n    bytes32 p1 = parameters[_instanceID][_address].hashPart1;\n    bytes32 p2 = parameters[_instanceID][_address].hashPart2;\n    bytes memory joined = new bytes(64);\n    assembly {\n      mstore(add(joined, 32), p1)\n      mstore(add(joined, 64), p2)\n    }\n    return joined;\n  }\n\n  function setPublicKey(uint64 _instanceID, bytes32 _hash1, bytes32 _hash2) public {\n    publicKeys[_instanceID][msg.sender].hashPart1 = _hash1;\n    publicKeys[_instanceID][msg.sender].hashPart2 = _hash2;\n  }\n\n  function getPublicKey(address _address, uint64 _instanceID) public view returns (bytes memory) {\n    bytes32 p2 = publicKeys[_instanceID][_address].hashPart1;\n    bytes32 p3 = publicKeys[_instanceID][_address].hashPart2;\n    bytes memory joined = new bytes(64);\n    assembly {\n      mstore(add(joined, 32), p2)\n      mstore(add(joined, 64), p3)\n    }\n      return (joined);\n  }\n\n  function setPublicKeyReaders(bytes32 _hash1, bytes32 _hash2) public {\n    publicKeysReaders[msg.sender].hashPart1 = _hash1;\n    publicKeysReaders[msg.sender].hashPart2 = _hash2;\n  }\n\n  function getPublicKeyReaders(address _address) public view returns (bytes memory) {\n    bytes32 p2 = publicKeysReaders[_address].hashPart1;\n    bytes32 p3 = publicKeysReaders[_address].hashPart2;\n    bytes memory joined = new bytes(64);\n    assembly {\n      mstore(add(joined, 32), p2)\n      mstore(add(joined, 64), p3)\n    }\n      return (joined);\n  }\n\n  function setIPFSLink(uint64 _messageID, bytes32 _hash1, bytes32 _hash2) public {\n    allLinks[_messageID].sender = msg.sender;\n    allLinks[_messageID].hashPart1 = _hash1;\n    allLinks[_messageID].hashPart2 = _hash2;\n  }\n\n  function getIPFSLink(uint64 _messageID) public view returns (address, bytes memory) {\n    address sender = allLinks[_messageID].sender;\n    bytes32 p1 = allLinks[_messageID].hashPart1;\n    bytes32 p2 = allLinks[_messageID].hashPart2;\n    bytes memory joined = new bytes(64);\n    assembly {\n      mstore(add(joined, 32), p1)\n      mstore(add(joined, 64), p2)\n    }\n    return (sender, joined);\n  }\n\n  function setUserAttributes(uint64 _instanceID, bytes32 _hash1, bytes32 _hash2) public {\n    allUsers[_instanceID].hashPart1 = _hash1;\n    allUsers[_instanceID].hashPart2 = _hash2;\n  }\n\n  function getUserAttributes(uint64 _instanceID) public view returns (bytes memory) {\n    bytes32 p1 = allUsers[_instanceID].hashPart1;\n    bytes32 p2 = allUsers[_instanceID].hashPart2;\n    bytes memory joined = new bytes(64);\n    assembly {\n      mstore(add(joined, 32), p1)\n      mstore(add(joined, 64), p2)\n    }\n    return joined;\n  }\n\n\n\n\n\n\n\n\n\n\n  function setApplicationForm(uint64 _caseID, bytes32 _hash1, bytes32 _hash2) public {\n    require(loanApplications[_caseID].status == 0, \"Status must be 0 to set application form\");\n\n    loanApplications[_caseID].status = 1;\n    loanApplications[_caseID].senderapplicationForm = msg.sender;\n    loanApplications[_caseID].applicationFormDocument1 = _hash1;\n    loanApplications[_caseID].applicationFormDocument2 = _hash2;\n  }\n\n  function getApplicationForm(uint64 _caseID) public view returns (uint8, address, bytes memory) {\n    uint8 status = loanApplications[_caseID].status;\n    address sender = loanApplications[_caseID].senderapplicationForm;\n    bytes32 p1 = loanApplications[_caseID].applicationFormDocument1;\n    bytes32 p2 = loanApplications[_caseID].applicationFormDocument2;\n    bytes memory joined = new bytes(64);\n    assembly {\n      mstore(add(joined, 32), p1)\n      mstore(add(joined, 64), p2)\n    }\n    return (status, sender, joined);\n  }\n\n\n  function setGuaranteeConfirmation(uint64 _caseID, bytes32 _hash1, bytes32 _hash2) public {\n    require(loanApplications[_caseID].status == 1, \"Status must be 1 to set guarantee confirmation\");\n\n    loanApplications[_caseID].status = 2;\n    loanApplications[_caseID].senderguaranteeConfirmation = msg.sender;\n    loanApplications[_caseID].guaranteeConfirmationDocument1 = _hash1;\n    loanApplications[_caseID].guaranteeConfirmationDocument2 = _hash2;\n  }\n\n  function getGuaranteeConfirmation(uint64 _caseID) public view returns (uint8, address, bytes memory) {\n    uint8 status = loanApplications[_caseID].status;\n    address sender = loanApplications[_caseID].senderguaranteeConfirmation;\n    bytes32 p1 = loanApplications[_caseID].guaranteeConfirmationDocument1;\n    bytes32 p2 = loanApplications[_caseID].guaranteeConfirmationDocument2;\n    bytes memory joined = new bytes(64);\n    assembly {\n      mstore(add(joined, 32), p1)\n      mstore(add(joined, 64), p2)\n    }\n    return (status, sender, joined);\n  }\n\n\n  function setLoanRequest(uint64 _caseID, bytes32 _hash1, bytes32 _hash2) public {\n      require(loanApplications[_caseID].status == 2, \"Status must be 2 to set loan request\");\n\n      loanApplications[_caseID].status = 3;\n      loanApplications[_caseID].senderloanRequest = msg.sender;\n      loanApplications[_caseID].loanRequestDocument1 = _hash1;\n      loanApplications[_caseID].loanRequestDocument2 = _hash2;\n  }\n\n  function getLoanRequest(uint64 _caseID) public view returns (uint8, address, bytes memory) {\n    uint8 status = loanApplications[_caseID].status;\n    address sender = loanApplications[_caseID].senderloanRequest;\n    bytes32 p1 = loanApplications[_caseID].loanRequestDocument1;\n    bytes32 p2 = loanApplications[_caseID].loanRequestDocument2;\n    bytes memory joined = new bytes(64);\n    assembly {\n      mstore(add(joined, 32), p1)\n      mstore(add(joined, 64), p2)\n    }\n    return (status, sender, joined);\n  }\n\n\n\n\n\n\n\n\n\n\n  function setGuaranteeClaim(uint64 _caseID, bytes32 _hash1, bytes32 _hash2) public {\n    require(guaranteePayments[_caseID].status == 0, \"Status must be 0 to set guarantee claim\");\n\n    guaranteePayments[_caseID].status = 1;\n    guaranteePayments[_caseID].sender = msg.sender;\n    guaranteePayments[_caseID].guaranteeClaimDocument1 = _hash1;\n    guaranteePayments[_caseID].guaranteeClaimDocument2 = _hash2;\n  }\n\n  function getGuaranteeClaim(uint64 _caseID) public view returns (uint8, address, bytes memory) {\n    uint8 status = guaranteePayments[_caseID].status;\n    address sender = guaranteePayments[_caseID].sender;\n    bytes32 p1 = guaranteePayments[_caseID].guaranteeClaimDocument1;\n    bytes32 p2 = guaranteePayments[_caseID].guaranteeClaimDocument2;\n    bytes memory joined = new bytes(64);\n    assembly {\n      mstore(add(joined, 32), p1)\n      mstore(add(joined, 64), p2)\n    }\n    return (status, sender, joined);\n  }\n\n  function setRejectPayment(uint64 _caseID, bytes32 _hash1, bytes32 _hash2) public {\n    require(guaranteePayments[_caseID].status == 1, \"Status must be 1 to reject payment\");\n\n    guaranteePayments[_caseID].status = 4;\n    guaranteePayments[_caseID].sender = msg.sender;\n    guaranteePayments[_caseID].rejectPaymentDocument1 = _hash1;\n    guaranteePayments[_caseID].rejectPaymentDocument2 = _hash2;\n  }\n\n  function getRejectPayment(uint64 _caseID) public view returns (uint8, address, bytes memory) {\n    uint8 status = guaranteePayments[_caseID].status;\n    address sender = guaranteePayments[_caseID].sender;\n    bytes32 p1 = guaranteePayments[_caseID].rejectPaymentDocument1;\n    bytes32 p2 = guaranteePayments[_caseID].rejectPaymentDocument1;\n    bytes memory joined = new bytes(64);\n    assembly {\n      mstore(add(joined, 32), p1)\n      mstore(add(joined, 64), p2)\n    }\n    return (status, sender, joined);\n  }\n\n  function setAllowPayment(uint64 _caseID, bytes32 _hash1, bytes32 _hash2) public {\n    require(guaranteePayments[_caseID].status == 1, \"Status must be 1 to allow payment\");\n\n    guaranteePayments[_caseID].status = 2;\n    guaranteePayments[_caseID].sender = msg.sender;\n    guaranteePayments[_caseID].allowPaymentDocument1 = _hash1;\n    guaranteePayments[_caseID].allowPaymentDocument2 = _hash2;\n  }\n\n  function getAllowPayment(uint64 _caseID) public view returns (uint8, address, bytes memory) {\n    uint8 status = guaranteePayments[_caseID].status;\n    address sender = guaranteePayments[_caseID].sender;\n    bytes32 p1 = guaranteePayments[_caseID].allowPaymentDocument1;\n    bytes32 p2 = guaranteePayments[_caseID].allowPaymentDocument2;\n    bytes memory joined = new bytes(64);\n    assembly {\n      mstore(add(joined, 32), p1)\n      mstore(add(joined, 64), p2)\n    }\n    return (status, sender, joined);\n  }\n\n  function setGuaranteeClaimGuarantor(uint64 _caseID, bytes32 _hash1, bytes32 _hash2) public {\n    require(guaranteePayments[_caseID].status == 2, \"Status must be 2 to set guarantor claim\");\n\n    guaranteePayments[_caseID].status = 3;\n    guaranteePayments[_caseID].sender = msg.sender;\n    guaranteePayments[_caseID].guaranteeClaimGuarantorDocument1 = _hash1;\n    guaranteePayments[_caseID].guaranteeClaimGuarantorDocument2 = _hash2;\n  }\n\n  function getGuaranteeClaimGuarantor(uint64 _caseID) public view returns (uint8, address, bytes memory) {\n    uint8 status = guaranteePayments[_caseID].status;\n    address sender = guaranteePayments[_caseID].sender;\n    bytes32 p1 = guaranteePayments[_caseID].guaranteeClaimGuarantorDocument1;\n    bytes32 p2 = guaranteePayments[_caseID].guaranteeClaimGuarantorDocument2;\n    bytes memory joined = new bytes(64);\n    assembly {\n      mstore(add(joined, 32), p1)\n      mstore(add(joined, 64), p2)\n    }\n    return (status, sender, joined);\n  }\n\n}\n\n",
  "sourcePath": "/MARTSIA-Demo/blockchain/contracts/MARTSIAEth.sol",
  "compiler": {
    "name": "solc",
    "version": "0.8.17+commit.8df45f5f.Emscripten.clang"
  },
  "schemaVersion": "3.4.11",
  "updatedAt": "2025-07-01T15:54:49.153Z",
  "networkType": "ethereum",
  "devdoc": {
    "kind": "dev",
    "methods": {},
    "version": 1
  },
  "userdoc": {
    "kind": "user",
    "methods": {},
    "version": 1
  }
}